{
  "_format": "hh-sol-artifact-1",
  "contractName": "Create",
  "sourceName": "contracts/VotingContract.sol",
  "abi": [
    {
      "inputs": [],
      "stateMutability": "nonpayable",
      "type": "constructor"
    },
    {
      "anonymous": false,
      "inputs": [
        {
          "indexed": true,
          "internalType": "uint256",
          "name": "candidateId",
          "type": "uint256"
        },
        {
          "indexed": false,
          "internalType": "string",
          "name": "age",
          "type": "string"
        },
        {
          "indexed": false,
          "internalType": "string",
          "name": "name",
          "type": "string"
        },
        {
          "indexed": false,
          "internalType": "string",
          "name": "image",
          "type": "string"
        },
        {
          "indexed": false,
          "internalType": "string",
          "name": "party",
          "type": "string"
        },
        {
          "indexed": false,
          "internalType": "uint256",
          "name": "voteCount",
          "type": "uint256"
        },
        {
          "indexed": false,
          "internalType": "address",
          "name": "_address",
          "type": "address"
        },
        {
          "indexed": false,
          "internalType": "string",
          "name": "ipfs",
          "type": "string"
        }
      ],
      "name": "CandidateCreate",
      "type": "event"
    },
    {
      "inputs": [
        {
          "internalType": "uint256",
          "name": "",
          "type": "uint256"
        }
      ],
      "name": "candidateAddress",
      "outputs": [
        {
          "internalType": "address",
          "name": "",
          "type": "address"
        }
      ],
      "stateMutability": "view",
      "type": "function"
    },
    {
      "inputs": [
        {
          "internalType": "address",
          "name": "",
          "type": "address"
        }
      ],
      "name": "candidates",
      "outputs": [
        {
          "internalType": "uint256",
          "name": "candidateId",
          "type": "uint256"
        },
        {
          "internalType": "string",
          "name": "age",
          "type": "string"
        },
        {
          "internalType": "string",
          "name": "name",
          "type": "string"
        },
        {
          "internalType": "string",
          "name": "image",
          "type": "string"
        },
        {
          "internalType": "string",
          "name": "party",
          "type": "string"
        },
        {
          "internalType": "uint256",
          "name": "voteCount",
          "type": "uint256"
        },
        {
          "internalType": "address",
          "name": "_address",
          "type": "address"
        },
        {
          "internalType": "string",
          "name": "ipfs",
          "type": "string"
        }
      ],
      "stateMutability": "view",
      "type": "function"
    },
    {
      "inputs": [],
      "name": "end_period",
      "outputs": [
        {
          "internalType": "uint256",
          "name": "",
          "type": "uint256"
        }
      ],
      "stateMutability": "view",
      "type": "function"
    },
    {
      "inputs": [],
      "name": "getAllCandidates",
      "outputs": [
        {
          "components": [
            {
              "internalType": "uint256",
              "name": "candidateId",
              "type": "uint256"
            },
            {
              "internalType": "string",
              "name": "age",
              "type": "string"
            },
            {
              "internalType": "string",
              "name": "name",
              "type": "string"
            },
            {
              "internalType": "string",
              "name": "image",
              "type": "string"
            },
            {
              "internalType": "string",
              "name": "party",
              "type": "string"
            },
            {
              "internalType": "uint256",
              "name": "voteCount",
              "type": "uint256"
            },
            {
              "internalType": "address",
              "name": "_address",
              "type": "address"
            },
            {
              "internalType": "string",
              "name": "ipfs",
              "type": "string"
            }
          ],
          "internalType": "struct Create.Candidate[]",
          "name": "",
          "type": "tuple[]"
        }
      ],
      "stateMutability": "view",
      "type": "function"
    },
    {
      "inputs": [],
      "name": "getCandidate",
      "outputs": [
        {
          "internalType": "address[]",
          "name": "",
          "type": "address[]"
        }
      ],
      "stateMutability": "view",
      "type": "function"
    },
    {
      "inputs": [
        {
          "internalType": "address",
          "name": "_address",
          "type": "address"
        }
      ],
      "name": "getCandidateData",
      "outputs": [
        {
          "internalType": "string",
          "name": "",
          "type": "string"
        },
        {
          "internalType": "string",
          "name": "",
          "type": "string"
        },
        {
          "internalType": "uint256",
          "name": "",
          "type": "uint256"
        },
        {
          "internalType": "string",
          "name": "",
          "type": "string"
        },
        {
          "internalType": "string",
          "name": "",
          "type": "string"
        },
        {
          "internalType": "uint256",
          "name": "",
          "type": "uint256"
        },
        {
          "internalType": "string",
          "name": "",
          "type": "string"
        },
        {
          "internalType": "address",
          "name": "",
          "type": "address"
        }
      ],
      "stateMutability": "view",
      "type": "function"
    },
    {
      "inputs": [],
      "name": "getCandidateLength",
      "outputs": [
        {
          "internalType": "uint256",
          "name": "",
          "type": "uint256"
        }
      ],
      "stateMutability": "view",
      "type": "function"
    },
    {
      "inputs": [],
      "name": "getVotedVoterList",
      "outputs": [
        {
          "internalType": "address[]",
          "name": "",
          "type": "address[]"
        }
      ],
      "stateMutability": "view",
      "type": "function"
    },
    {
      "inputs": [
        {
          "internalType": "address",
          "name": "",
          "type": "address"
        }
      ],
      "name": "hasVoted",
      "outputs": [
        {
          "internalType": "bool",
          "name": "",
          "type": "bool"
        }
      ],
      "stateMutability": "view",
      "type": "function"
    },
    {
      "inputs": [
        {
          "internalType": "address",
          "name": "_address",
          "type": "address"
        },
        {
          "internalType": "string",
          "name": "_age",
          "type": "string"
        },
        {
          "internalType": "string",
          "name": "_name",
          "type": "string"
        },
        {
          "internalType": "string",
          "name": "_image",
          "type": "string"
        },
        {
          "internalType": "string",
          "name": "_party",
          "type": "string"
        },
        {
          "internalType": "string",
          "name": "_ipfs",
          "type": "string"
        }
      ],
      "name": "setCandidate",
      "outputs": [],
      "stateMutability": "nonpayable",
      "type": "function"
    },
    {
      "inputs": [
        {
          "internalType": "uint256",
          "name": "_start",
          "type": "uint256"
        },
        {
          "internalType": "uint256",
          "name": "_end",
          "type": "uint256"
        }
      ],
      "name": "setVotingPeriod",
      "outputs": [],
      "stateMutability": "nonpayable",
      "type": "function"
    },
    {
      "inputs": [],
      "name": "start_period",
      "outputs": [
        {
          "internalType": "uint256",
          "name": "",
          "type": "uint256"
        }
      ],
      "stateMutability": "view",
      "type": "function"
    },
    {
      "inputs": [
        {
          "internalType": "address",
          "name": "_candidateIdAddress",
          "type": "address"
        }
      ],
      "name": "vote",
      "outputs": [],
      "stateMutability": "nonpayable",
      "type": "function"
    },
    {
      "inputs": [
        {
          "internalType": "uint256",
          "name": "",
          "type": "uint256"
        }
      ],
      "name": "votedVoters",
      "outputs": [
        {
          "internalType": "address",
          "name": "",
          "type": "address"
        }
      ],
      "stateMutability": "view",
      "type": "function"
    },
    {
      "inputs": [],
      "name": "votingOrganizer",
      "outputs": [
        {
          "internalType": "address",
          "name": "",
          "type": "address"
        }
      ],
      "stateMutability": "view",
      "type": "function"
    }
  ],
  "bytecode": "0x60808060405234602757600380546001600160a01b0319163317905561157c908161002d8239f35b600080fdfe608080604052600436101561001357600080fd5b60003560e01c90816309eef43e1461128c575080632a466ac7146111515780632e6997fe14610f025780633a88251a14610ec05780635399ed8314610ea25780635cc48aa714610e795780636dd7d8ea14610cd757806370218b8514610c575780637831ffb314610bdb5780637a3edc0b1461036d578063823825f01461034f5780638ab66a901461025e5780638e945685146101ce578063a15a36c7146100e75763f7522a83146100c457600080fd5b346100e25760003660031901126100e2576020600454604051908152f35b600080fd5b346100e25760403660031901126100e25760035460243590600435906001600160a01b03163303610173578181101561012257600155600255005b60405162461bcd60e51b815260206004820152602360248201527f53746172742074696d65206d757374206265206265666f726520656e642074696044820152626d652160e81b6064820152608490fd5b60405162461bcd60e51b815260206004820152602d60248201527f4f6e6c7920746865206f7267616e697a65722063616e2073657420746865207660448201526c6f74696e6720706572696f642160981b6064820152608490fd5b346100e25760003660031901126100e25760405180602060065491828152019060066000527ff652222313e28459528d920b65115c16c04f3efc82aaedc97be59f3f377c0d3f9060005b81811061023f5761023b8561022f818703826113c6565b60405191829182611367565b0390f35b82546001600160a01b0316845260209093019260019283019201610218565b346100e25760203660031901126100e2576001600160a01b0361027f6112c7565b1660005260056020526020604060002061023b8154916102a160018201611477565b6102ad60028301611477565b916103376102bd60038301611477565b6103296102cc60048501611477565b9161031b60058601549761030d6102f2600760018060a01b0360068b0154169901611477565b986101006040519e8f9e8f90815201526101008d01906112dd565b908b820360408d01526112dd565b9089820360608b01526112dd565b9087820360808901526112dd565b9260a086015260c085015283820360e08501526112dd565b346100e25760003660031901126100e2576020600254604051908152f35b346100e25760c03660031901126100e2576103866112c7565b6024356001600160401b0381116100e2576103a59036906004016113e7565b6044356001600160401b0381116100e2576103c49036906004016113e7565b6064356001600160401b0381116100e2576103e39036906004016113e7565b916084356001600160401b0381116100e2576104039036906004016113e7565b9260a4356001600160401b0381116100e2576104239036906004016113e7565b6003549095906001600160a01b03163303610b8b576001600160a01b0316600081815260056020526040902054610b4657600160005401958660005560405161046b816113aa565b87815260208101908582526040810187815260608201868152608083018a815260a08401916000835260c085019388855260e08601968888528960005260056020526040600020965187556001870190518051906001600160401b0382116107645781906104d9845461143d565b601f8111610af3575b50602090601f8311600114610a8e57600092610a83575b50508160011b916000199060031b1c19161790555b51805160028701916001600160401b038211610764578190610530845461143d565b601f8111610a30575b50602090601f83116001146109cb576000926109c0575b50508160011b916000199060031b1c19161790555b51805160038601916001600160401b038211610764578190610587845461143d565b601f811161096d575b50602090601f8311600114610908576000926108fd575b50508160011b916000199060031b1c19161790555b51805160048501916001600160401b038211610764576105dc835461143d565b601f81116108b5575b50602090601f83116001146108485760079695949392916000918361083d575b50508160011b916000199060031b1c19161790555b516005830155600682019060018060a01b039051166bffffffffffffffffffffffff60a01b8254161790550190518051906001600160401b038211610764578190610665845461143d565b601f81116107ea575b50602090601f83116001146107855760009261077a575b50508160011b916000199060031b1c19161790555b600454600160401b811015610764577f11c9ddb49fc14a39f10a121f76350fcaaa8cc1a58b16a6bf9e7708739ef08b269661073761075f9561072961071b996106ee8660016107459801600455600461134f565b81549060031b908a821b9160018060a01b03901b19161790556040519a8b9a60e08c5260e08c01906112dd565b908a820360208c01526112dd565b9088820360408a01526112dd565b9086820360608801526112dd565b916000608086015260a085015283820360c08501526112dd565b0390a2005b634e487b7160e01b600052604160045260246000fd5b015190508a80610685565b60008581528281209350601f198516905b8181106107d257509084600195949392106107b9575b505050811b01905561069a565b015160001960f88460031b161c191690558a80806107ac565b92936020600181928786015181550195019301610796565b909150836000526020600020601f840160051c81019160208510610833575b90601f859493920160051c01905b818110610824575061066e565b60008155849350600101610817565b9091508190610809565b015190508f80610605565b90601f1983169184600052816000209260005b81811061089d575091600193918560079a999897969410610884575b505050811b01905561061a565b015160001960f88460031b161c191690558f8080610877565b9293602060018192878601518155019501930161085b565b836000526020600020601f840160051c810191602085106108f3575b601f0160051c01905b8181106108e757506105e5565b600081556001016108da565b90915081906108d1565b015190508f806105a7565b60008581528281209350601f198516905b818110610955575090846001959493921061093c575b505050811b0190556105bc565b015160001960f88460031b161c191690558f808061092f565b92936020600181928786015181550195019301610919565b909150836000526020600020601f840160051c810191602085106109b6575b90601f859493920160051c01905b8181106109a75750610590565b6000815584935060010161099a565b909150819061098c565b015190503880610550565b60008581528281209350601f198516905b818110610a1857509084600195949392106109ff575b505050811b019055610565565b015160001960f88460031b161c191690553880806109f2565b929360206001819287860151815501950193016109dc565b909150836000526020600020601f840160051c81019160208510610a79575b90601f859493920160051c01905b818110610a6a5750610539565b60008155849350600101610a5d565b9091508190610a4f565b0151905038806104f9565b60008581528281209350601f198516905b818110610adb5750908460019594939210610ac2575b505050811b01905561050e565b015160001960f88460031b161c19169055388080610ab5565b92936020600181928786015181550195019301610a9f565b909150836000526020600020601f840160051c81019160208510610b3c575b90601f859493920160051c01905b818110610b2d57506104e2565b60008155849350600101610b20565b9091508190610b12565b60405162461bcd60e51b815260206004820152601960248201527f43616e64696461746520616c72656164792065786973747321000000000000006044820152606490fd5b60405162461bcd60e51b815260206004820152602260248201527f4f6e6c79204f7267616e697365722063616e206164642043616e646964617465604482015261732160f01b6064820152608490fd5b346100e25760203660031901126100e2576004356006548110156100e257600090600654811015610c435760069091527ff652222313e28459528d920b65115c16c04f3efc82aaedc97be59f3f377c0d3f01546040516001600160a01b039091168152602090f35b634e487b7160e01b82526032600452602482fd5b346100e25760003660031901126100e25760405180602060045491828152019060046000527f8a35acfbc15ff81a39ae7d344fd709f28e8600b4aa8c65c6b64bfe7fe36bd19b9060005b818110610cb85761023b8561022f818703826113c6565b82546001600160a01b0316845260209093019260019283019201610ca1565b346100e25760203660031901126100e257610cf06112c7565b6001544210610e34576002544211610def5733600052600760205260ff60406000205416610daa573360005260076020526040600020600160ff19825416179055600654600160401b81101561076457806001610d529201600655600661134f565b81549060031b9033821b9160018060a01b03901b191617905560018060a01b03166000526005602052600560406000200180549060018201809211610d945755005b634e487b7160e01b600052601160045260246000fd5b60405162461bcd60e51b815260206004820152601760248201527f596f75206861766520616c726561647920766f746564210000000000000000006044820152606490fd5b60405162461bcd60e51b815260206004820152601860248201527f566f74696e6720706572696f642068617320656e6465642100000000000000006044820152606490fd5b60405162461bcd60e51b815260206004820152601b60248201527f566f74696e6720686173206e6f742073746172746564207965742100000000006044820152606490fd5b346100e25760003660031901126100e2576003546040516001600160a01b039091168152602090f35b346100e25760003660031901126100e2576020600154604051908152f35b346100e25760203660031901126100e2576004356004548110156100e257610ee960209161131e565b905460405160039290921b1c6001600160a01b03168152f35b346100e25760003660031901126100e257600454610f1f8161151b565b90610f2d60405192836113c6565b808252601f19610f3c8261151b565b0160005b81811061110357505060005b81811061104157826040518091602082016020835281518091526040830190602060408260051b8601019301916000905b828210610f8c57505050500390f35b919360019193955060206110318192603f198a82030186528851908151815260e0611005610ff3610fe1610fcf888701516101008a8801526101008701906112dd565b604087015186820360408801526112dd565b606086015185820360608701526112dd565b608085015184820360808601526112dd565b9260a081015160a0840152878060a01b0360c08201511660c084015201519060e08184039101526112dd565b9601920192018594939192610f7d565b8061104d60019261131e565b838060a01b0391549060031b1c16600052600560205260406000206110e260076040519261107a846113aa565b80548452611089868201611477565b602085015261109a60028201611477565b60408501526110ab60038201611477565b60608501526110bc60048201611477565b6080850152600581015460a0850152858060a01b0360068201541660c085015201611477565b60e08201526110f18286611532565b526110fc8185611532565b5001610f4c565b602090604051611112816113aa565b600081526060838201526060604082015260608082015260606080820152600060a0820152600060c0820152606060e082015282828701015201610f40565b346100e25760203660031901126100e2576001600160a01b036111726112c7565b166000526005602052604060002061010060405161118f816113aa565b825481526112826111a260018501611477565b93602083019485526111b660028201611477565b946040840195865261126f6111cd60038401611477565b606086019081526103296111e360048601611477565b916080880192835260058601549260a0890193845261125c61121b600760018060a01b0360068b0154169960c08d019a8b5201611477565b968760e08c0152519b5199519251915194519760018060a01b039051169961124e6040519d8d8f9e8f90815201906112dd565b8c810360208e0152906112dd565b9160408b015289820360608b01526112dd565b9160a086015284820360c08601526112dd565b9060e08301520390f35b346100e25760203660031901126100e2576020906001600160a01b036112b06112c7565b166000526007825260ff6040600020541615158152f35b600435906001600160a01b03821682036100e257565b919082519283825260005b848110611309575050826000602080949584010152601f8019910116010190565b806020809284010151828286010152016112e8565b60045481101561133957600460005260206000200190600090565b634e487b7160e01b600052603260045260246000fd5b80548210156113395760005260206000200190600090565b602060408183019282815284518094520192019060005b81811061138b5750505090565b82516001600160a01b031684526020938401939092019160010161137e565b61010081019081106001600160401b0382111761076457604052565b90601f801991011681019081106001600160401b0382111761076457604052565b81601f820112156100e2578035906001600160401b038211610764576040519261141b601f8401601f1916602001856113c6565b828452602083830101116100e257816000926020809301838601378301015290565b90600182811c9216801561146d575b602083101461145757565b634e487b7160e01b600052602260045260246000fd5b91607f169161144c565b906040519182600082549261148b8461143d565b80845293600181169081156114f957506001146114b2575b506114b0925003836113c6565b565b90506000929192526020600020906000915b8183106114dd5750509060206114b092820101386114a3565b60209193508060019154838589010152019101909184926114c4565b9050602092506114b094915060ff191682840152151560051b820101386114a3565b6001600160401b0381116107645760051b60200190565b80518210156113395760209160051b01019056fea2646970667358221220b4a27c97b8f673facfac6fffe98caf37b17c2806cdebed5528c496f4ce09c77064736f6c634300081c0033",
  "linkReferences": {},
  "deployedLinkReferences": {}
}