{
  "_format": "hh-sol-artifact-1",
  "contractName": "Create",
  "sourceName": "contracts/VotingContract.sol",
  "abi": [
    {
      "inputs": [],
      "stateMutability": "nonpayable",
      "type": "constructor"
    },
    {
      "anonymous": false,
      "inputs": [
        {
          "indexed": true,
          "internalType": "uint256",
          "name": "candidateId",
          "type": "uint256"
        },
        {
          "indexed": false,
          "internalType": "string",
          "name": "age",
          "type": "string"
        },
        {
          "indexed": false,
          "internalType": "string",
          "name": "name",
          "type": "string"
        },
        {
          "indexed": false,
          "internalType": "string",
          "name": "image",
          "type": "string"
        },
        {
          "indexed": false,
          "internalType": "string",
          "name": "party",
          "type": "string"
        },
        {
          "indexed": false,
          "internalType": "uint256",
          "name": "voteCount",
          "type": "uint256"
        },
        {
          "indexed": false,
          "internalType": "address",
          "name": "_address",
          "type": "address"
        },
        {
          "indexed": false,
          "internalType": "string",
          "name": "ipfs",
          "type": "string"
        },
        {
          "indexed": false,
          "internalType": "uint256",
          "name": "sessionId",
          "type": "uint256"
        }
      ],
      "name": "CandidateCreate",
      "type": "event"
    },
    {
      "anonymous": false,
      "inputs": [
        {
          "indexed": true,
          "internalType": "address",
          "name": "voter",
          "type": "address"
        },
        {
          "indexed": false,
          "internalType": "address[]",
          "name": "candidates",
          "type": "address[]"
        },
        {
          "indexed": false,
          "internalType": "uint256",
          "name": "sessionId",
          "type": "uint256"
        },
        {
          "indexed": false,
          "internalType": "uint256",
          "name": "timestamp",
          "type": "uint256"
        }
      ],
      "name": "MultipleVoteCast",
      "type": "event"
    },
    {
      "anonymous": false,
      "inputs": [
        {
          "indexed": true,
          "internalType": "address",
          "name": "voter",
          "type": "address"
        },
        {
          "indexed": true,
          "internalType": "address",
          "name": "candidate",
          "type": "address"
        },
        {
          "indexed": true,
          "internalType": "bytes32",
          "name": "userIdHash",
          "type": "bytes32"
        },
        {
          "indexed": false,
          "internalType": "uint256",
          "name": "sessionId",
          "type": "uint256"
        },
        {
          "indexed": false,
          "internalType": "uint256",
          "name": "timestamp",
          "type": "uint256"
        }
      ],
      "name": "VoteCast",
      "type": "event"
    },
    {
      "anonymous": false,
      "inputs": [
        {
          "indexed": true,
          "internalType": "address",
          "name": "voter",
          "type": "address"
        },
        {
          "indexed": false,
          "internalType": "uint256",
          "name": "sessionId",
          "type": "uint256"
        },
        {
          "indexed": false,
          "internalType": "uint256",
          "name": "timestamp",
          "type": "uint256"
        }
      ],
      "name": "WhiteVoteCast",
      "type": "event"
    },
    {
      "inputs": [
        {
          "internalType": "uint256",
          "name": "",
          "type": "uint256"
        }
      ],
      "name": "candidateAddress",
      "outputs": [
        {
          "internalType": "address",
          "name": "",
          "type": "address"
        }
      ],
      "stateMutability": "view",
      "type": "function"
    },
    {
      "inputs": [
        {
          "internalType": "address",
          "name": "",
          "type": "address"
        }
      ],
      "name": "candidates",
      "outputs": [
        {
          "internalType": "uint256",
          "name": "candidateId",
          "type": "uint256"
        },
        {
          "internalType": "string",
          "name": "age",
          "type": "string"
        },
        {
          "internalType": "string",
          "name": "name",
          "type": "string"
        },
        {
          "internalType": "string",
          "name": "image",
          "type": "string"
        },
        {
          "internalType": "string",
          "name": "party",
          "type": "string"
        },
        {
          "internalType": "uint256",
          "name": "voteCount",
          "type": "uint256"
        },
        {
          "internalType": "address",
          "name": "_address",
          "type": "address"
        },
        {
          "internalType": "string",
          "name": "ipfs",
          "type": "string"
        },
        {
          "internalType": "uint256",
          "name": "sessionId",
          "type": "uint256"
        }
      ],
      "stateMutability": "view",
      "type": "function"
    },
    {
      "inputs": [],
      "name": "currentSessionId",
      "outputs": [
        {
          "internalType": "uint256",
          "name": "",
          "type": "uint256"
        }
      ],
      "stateMutability": "view",
      "type": "function"
    },
    {
      "inputs": [],
      "name": "deployer",
      "outputs": [
        {
          "internalType": "address",
          "name": "",
          "type": "address"
        }
      ],
      "stateMutability": "view",
      "type": "function"
    },
    {
      "inputs": [],
      "name": "getAllCandidates",
      "outputs": [
        {
          "components": [
            {
              "internalType": "uint256",
              "name": "candidateId",
              "type": "uint256"
            },
            {
              "internalType": "string",
              "name": "age",
              "type": "string"
            },
            {
              "internalType": "string",
              "name": "name",
              "type": "string"
            },
            {
              "internalType": "string",
              "name": "image",
              "type": "string"
            },
            {
              "internalType": "string",
              "name": "party",
              "type": "string"
            },
            {
              "internalType": "uint256",
              "name": "voteCount",
              "type": "uint256"
            },
            {
              "internalType": "address",
              "name": "_address",
              "type": "address"
            },
            {
              "internalType": "string",
              "name": "ipfs",
              "type": "string"
            },
            {
              "internalType": "uint256",
              "name": "sessionId",
              "type": "uint256"
            }
          ],
          "internalType": "struct Create.Candidate[]",
          "name": "",
          "type": "tuple[]"
        }
      ],
      "stateMutability": "view",
      "type": "function"
    },
    {
      "inputs": [],
      "name": "getAllSessionsVotesByYear",
      "outputs": [
        {
          "internalType": "uint256[]",
          "name": "yeers",
          "type": "uint256[]"
        },
        {
          "internalType": "uint256[]",
          "name": "totalVotes",
          "type": "uint256[]"
        }
      ],
      "stateMutability": "view",
      "type": "function"
    },
    {
      "inputs": [
        {
          "internalType": "address",
          "name": "_address",
          "type": "address"
        }
      ],
      "name": "getCandidateData",
      "outputs": [
        {
          "internalType": "string",
          "name": "",
          "type": "string"
        },
        {
          "internalType": "string",
          "name": "",
          "type": "string"
        },
        {
          "internalType": "uint256",
          "name": "",
          "type": "uint256"
        },
        {
          "internalType": "string",
          "name": "",
          "type": "string"
        },
        {
          "internalType": "string",
          "name": "",
          "type": "string"
        },
        {
          "internalType": "uint256",
          "name": "",
          "type": "uint256"
        },
        {
          "internalType": "string",
          "name": "",
          "type": "string"
        },
        {
          "internalType": "address",
          "name": "",
          "type": "address"
        },
        {
          "internalType": "uint256",
          "name": "",
          "type": "uint256"
        }
      ],
      "stateMutability": "view",
      "type": "function"
    },
    {
      "inputs": [],
      "name": "getCandidateLength",
      "outputs": [
        {
          "internalType": "uint256",
          "name": "",
          "type": "uint256"
        }
      ],
      "stateMutability": "view",
      "type": "function"
    },
    {
      "inputs": [],
      "name": "getCurrentSessionCandidates",
      "outputs": [
        {
          "internalType": "address[]",
          "name": "",
          "type": "address[]"
        }
      ],
      "stateMutability": "view",
      "type": "function"
    },
    {
      "inputs": [],
      "name": "getCurrentSessionWinner",
      "outputs": [
        {
          "internalType": "string",
          "name": "name",
          "type": "string"
        },
        {
          "internalType": "address",
          "name": "winnerAddress",
          "type": "address"
        },
        {
          "internalType": "uint256",
          "name": "voteCount",
          "type": "uint256"
        },
        {
          "internalType": "string",
          "name": "party",
          "type": "string"
        },
        {
          "internalType": "string",
          "name": "image",
          "type": "string"
        }
      ],
      "stateMutability": "view",
      "type": "function"
    },
    {
      "inputs": [
        {
          "internalType": "uint256",
          "name": "_sessionId",
          "type": "uint256"
        }
      ],
      "name": "getSessionData",
      "outputs": [
        {
          "internalType": "uint256",
          "name": "year",
          "type": "uint256"
        },
        {
          "internalType": "string[]",
          "name": "candidateNames",
          "type": "string[]"
        },
        {
          "internalType": "uint256[]",
          "name": "voteCounts",
          "type": "uint256[]"
        },
        {
          "internalType": "string",
          "name": "winnerName",
          "type": "string"
        },
        {
          "internalType": "address",
          "name": "winnerAddress",
          "type": "address"
        },
        {
          "internalType": "uint256",
          "name": "winnerVoteCount",
          "type": "uint256"
        }
      ],
      "stateMutability": "view",
      "type": "function"
    },
    {
      "inputs": [],
      "name": "getVotedIdList",
      "outputs": [
        {
          "internalType": "bytes32[]",
          "name": "",
          "type": "bytes32[]"
        }
      ],
      "stateMutability": "view",
      "type": "function"
    },
    {
      "inputs": [],
      "name": "getVotedVoterList",
      "outputs": [
        {
          "internalType": "address[]",
          "name": "",
          "type": "address[]"
        }
      ],
      "stateMutability": "view",
      "type": "function"
    },
    {
      "inputs": [
        {
          "internalType": "uint256",
          "name": "sessionId",
          "type": "uint256"
        }
      ],
      "name": "getVotesPerMinute",
      "outputs": [
        {
          "internalType": "uint256[]",
          "name": "timePoints",
          "type": "uint256[]"
        },
        {
          "internalType": "uint256[]",
          "name": "voteCounts",
          "type": "uint256[]"
        }
      ],
      "stateMutability": "view",
      "type": "function"
    },
    {
      "inputs": [
        {
          "internalType": "bytes32",
          "name": "_userIdHash",
          "type": "bytes32"
        }
      ],
      "name": "hasIdVoted",
      "outputs": [
        {
          "internalType": "bool",
          "name": "",
          "type": "bool"
        }
      ],
      "stateMutability": "view",
      "type": "function"
    },
    {
      "inputs": [
        {
          "internalType": "address",
          "name": "",
          "type": "address"
        }
      ],
      "name": "hasVoted",
      "outputs": [
        {
          "internalType": "bool",
          "name": "",
          "type": "bool"
        }
      ],
      "stateMutability": "view",
      "type": "function"
    },
    {
      "inputs": [
        {
          "internalType": "bytes32",
          "name": "",
          "type": "bytes32"
        }
      ],
      "name": "idHasVoted",
      "outputs": [
        {
          "internalType": "bool",
          "name": "",
          "type": "bool"
        }
      ],
      "stateMutability": "view",
      "type": "function"
    },
    {
      "inputs": [
        {
          "internalType": "address[]",
          "name": "_candidateAddresses",
          "type": "address[]"
        }
      ],
      "name": "multipleVote",
      "outputs": [],
      "stateMutability": "nonpayable",
      "type": "function"
    },
    {
      "inputs": [],
      "name": "organizer",
      "outputs": [
        {
          "internalType": "address",
          "name": "",
          "type": "address"
        }
      ],
      "stateMutability": "view",
      "type": "function"
    },
    {
      "inputs": [
        {
          "internalType": "address",
          "name": "_address",
          "type": "address"
        },
        {
          "internalType": "string",
          "name": "_age",
          "type": "string"
        },
        {
          "internalType": "string",
          "name": "_name",
          "type": "string"
        },
        {
          "internalType": "string",
          "name": "_image",
          "type": "string"
        },
        {
          "internalType": "string",
          "name": "_party",
          "type": "string"
        },
        {
          "internalType": "string",
          "name": "_ipfs",
          "type": "string"
        }
      ],
      "name": "setCandidate",
      "outputs": [],
      "stateMutability": "nonpayable",
      "type": "function"
    },
    {
      "inputs": [
        {
          "internalType": "address",
          "name": "_organizer",
          "type": "address"
        }
      ],
      "name": "setOrganizer",
      "outputs": [],
      "stateMutability": "nonpayable",
      "type": "function"
    },
    {
      "inputs": [
        {
          "internalType": "uint256",
          "name": "_start",
          "type": "uint256"
        },
        {
          "internalType": "uint256",
          "name": "_end",
          "type": "uint256"
        }
      ],
      "name": "setVotingPeriod",
      "outputs": [],
      "stateMutability": "nonpayable",
      "type": "function"
    },
    {
      "inputs": [
        {
          "internalType": "address",
          "name": "_candidateIdAddress",
          "type": "address"
        }
      ],
      "name": "vote",
      "outputs": [],
      "stateMutability": "nonpayable",
      "type": "function"
    },
    {
      "inputs": [
        {
          "internalType": "address",
          "name": "_candidateIdAddress",
          "type": "address"
        },
        {
          "internalType": "bytes32",
          "name": "_userIdHash",
          "type": "bytes32"
        }
      ],
      "name": "voteWithId",
      "outputs": [],
      "stateMutability": "nonpayable",
      "type": "function"
    },
    {
      "inputs": [
        {
          "internalType": "uint256",
          "name": "",
          "type": "uint256"
        }
      ],
      "name": "votedIdHashes",
      "outputs": [
        {
          "internalType": "bytes32",
          "name": "",
          "type": "bytes32"
        }
      ],
      "stateMutability": "view",
      "type": "function"
    },
    {
      "inputs": [
        {
          "internalType": "uint256",
          "name": "",
          "type": "uint256"
        }
      ],
      "name": "votedVoters",
      "outputs": [
        {
          "internalType": "address",
          "name": "",
          "type": "address"
        }
      ],
      "stateMutability": "view",
      "type": "function"
    },
    {
      "inputs": [],
      "name": "votingOrganizer",
      "outputs": [
        {
          "internalType": "address",
          "name": "",
          "type": "address"
        }
      ],
      "stateMutability": "view",
      "type": "function"
    },
    {
      "inputs": [],
      "name": "whiteVote",
      "outputs": [],
      "stateMutability": "nonpayable",
      "type": "function"
    }
  ],
  "bytecode": "0x60808060405234602757600280546001600160a01b03191633179055612933908161002d8239f35b600080fdfe608080604052600436101561001357600080fd5b60003560e01c90816309eef43e1461226c5750806313181174146121cc57806315aa0cc01461017657806317360f5e14611f2c5780632a466ac714611ddf5780632e6997fe14611b74578063346582c61461184f57806338ab91ec146118175780633a88251a146117d55780634058646e146117b9578063596e965b146116ff5780635cbf5325146114bf5780635cc48aa714611496578063612032651461146d5780636597a1301461144f5780636dd7d8ea146112d157806371d193f61461108b57806377c86b8714610f9d5780637831ffb314610f215780637a3edc0b1461064f57806389d61d77146105495780638ab66a90146104485780638e557aae146103045780638e94568514610289578063a15a36c7146101d0578063d5f39488146101a7578063e90d30e0146101765763f7522a831461015357600080fd5b34610171576000366003190112610171576020600754604051908152f35b600080fd5b3461017157602036600319011261017157600435600052600b602052602060ff604060002054166040519015158152f35b34610171576000366003190112610171576002546040516001600160a01b039091168152602090f35b34610171576040366003190112610171576004356024356101fc60018060a01b03600454163314612862565b80821015610238576000916003916001805401918260015582600655828552600560205260408520928355600183015560028201550155600080f35b60405162461bcd60e51b815260206004820152602360248201527f53746172742074696d65206d757374206265206265666f726520656e642074696044820152626d652160e81b6064820152608490fd5b34610171576000366003190112610171576040516009548082526020820190600960005260206000209060005b8181106102e5576102e1856102cd81870382612417565b6040519182916020835260208301906123be565b0390f35b82546001600160a01b03168452602090930192600192830192016102b6565b34610171576020366003190112610171576004358015158061043c575b61032a90612679565b806000526005602052603c60016040600020015404603c810290808204603c149015171561042657816000526005602052600260406000200154603b810180911161042657603c9004603c810290808204603c14901517156104265781810390811161042657603c900460018101809111610426576103a881612583565b916103b282612583565b9360005b8381106103cc57604051806102e18888836122f1565b603c810290808204603c1481151715610426576103eb60019285612809565b806103f683896125d1565b5283600052600560205260056040600020019060005260205260406000205461041f82896125d1565b52016103b6565b634e487b7160e01b600052601160045260246000fd5b50600154811115610321565b34610171576020366003190112610171576001600160a01b036104696122a7565b166000526008602052610120604060002080549061053e61048c600183016124df565b91610499600282016124df565b906104a6600382016124df565b916105266104b6600484016124df565b61051860058501549561050a60018060a01b03600688015416956104fc60086104e160078b016124df565b9901549b6040519e8f9e8f9081528160208201520190612319565b8c810360408e015290612319565b908a820360608c0152612319565b9088820360808a0152612319565b9260a087015260c086015284820360e0860152612319565b906101008301520390f35b34610171576020366003190112610171576105626122a7565b6002546001600160a01b031633036105fe576001600160a01b031680156105b957806bffffffffffffffffffffffff60a01b60035416176003556bffffffffffffffffffffffff60a01b6004541617600455600080f35b60405162461bcd60e51b815260206004820152601960248201527f496e76616c6964206f7267616e697a65722061646472657373000000000000006044820152606490fd5b60405162461bcd60e51b815260206004820152602360248201527f4f6e6c79206465706c6f7965722063616e2073657420746865206f7267616e696044820152623d32b960e91b6064820152608490fd5b346101715760c0366003190112610171576106686122a7565b6024356001600160401b0381116101715761068790369060040161244f565b906044356001600160401b038111610171576106a790369060040161244f565b906064356001600160401b038111610171576106c790369060040161244f565b926084356001600160401b038111610171576106e790369060040161244f565b9260a4356001600160401b0381116101715761070790369060040161244f565b9261071d60018060a01b03600454163314612862565b6001600160a01b0316600081815260086020526040902054909590610edc57600654958615610e975760016000540196876000556040519061075e826123fb565b888252602082018681526040830186815260608401868152608085018b815260a08601916000835260c087019388855260e08801958d875261010089019788528960005260086020526040600020985189556001890190518051906001600160401b038211610ab75781906107d384546124a5565b601f8111610e44575b50602090601f8311600114610ddf57600092610dd4575b50508160011b916000199060031b1c19161790555b51805160028901916001600160401b038211610ab757819061082a84546124a5565b601f8111610d81575b50602090601f8311600114610d1c57600092610d11575b50508160011b916000199060031b1c19161790555b51805160038801916001600160401b038211610ab757819061088184546124a5565b601f8111610cbe575b50602090601f8311600114610c5957600092610c4e575b50508160011b916000199060031b1c19161790555b51805160048701916001600160401b038211610ab75781906108d884546124a5565b601f8111610bfb575b50602090601f8311600114610b9657600092610b8b575b50508160011b916000199060031b1c19161790555b516005850155516006840180546001600160a01b0319166001600160a01b039290921691909117905551805160078401916001600160401b038211610ab75761095683546124a5565b601f8111610b43575b50602090601f8311600114610ad85760089493929160009183610acd575b50508160011b916000199060031b1c19161790555b51910155600754600160401b811015610ab7578060016109b7920160075560076123a6565b81549060031b9083821b9160018060a01b03901b19161790556006546000526005602052600460406000200194855495600160401b871015610ab7577f6b0dd9bccd604cc179a4fd3991e275b7c4f6b29d4a21bcc4addbc6bd4de997bb97610a84610aac95610a328a610a92956001610a689d0181556123a6565b81549060031b9088821b9160018060a01b03901b1916179055610a76600654986040519b8c9b6101008d526101008d0190612319565b908b820360208d0152612319565b9089820360408b0152612319565b908782036060890152612319565b916000608087015260a086015284820360c0860152612319565b9060e08301520390a2005b634e487b7160e01b600052604160045260246000fd5b015190508d8061097d565b90601f1983169184600052816000209260005b818110610b2b575091600193918560089897969410610b12575b505050811b019055610992565b015160001960f88460031b161c191690558d8080610b05565b92936020600181928786015181550195019301610aeb565b836000526020600020601f840160051c81019160208510610b81575b601f0160051c01905b818110610b75575061095f565b60008155600101610b68565b9091508190610b5f565b015190508f806108f8565b60008581528281209350601f198516905b818110610be35750908460019594939210610bca575b505050811b01905561090d565b015160001960f88460031b161c191690558f8080610bbd565b92936020600181928786015181550195019301610ba7565b909150836000526020600020601f840160051c81019160208510610c44575b90601f859493920160051c01905b818110610c3557506108e1565b60008155849350600101610c28565b9091508190610c1a565b0151905038806108a1565b60008581528281209350601f198516905b818110610ca65750908460019594939210610c8d575b505050811b0190556108b6565b015160001960f88460031b161c19169055388080610c80565b92936020600181928786015181550195019301610c6a565b909150836000526020600020601f840160051c81019160208510610d07575b90601f859493920160051c01905b818110610cf8575061088a565b60008155849350600101610ceb565b9091508190610cdd565b01519050388061084a565b60008581528281209350601f198516905b818110610d695750908460019594939210610d50575b505050811b01905561085f565b015160001960f88460031b161c19169055388080610d43565b92936020600181928786015181550195019301610d2d565b909150836000526020600020601f840160051c81019160208510610dca575b90601f859493920160051c01905b818110610dbb5750610833565b60008155849350600101610dae565b9091508190610da0565b0151905038806107f3565b60008581528281209350601f198516905b818110610e2c5750908460019594939210610e13575b505050811b019055610808565b015160001960f88460031b161c19169055388080610e06565b92936020600181928786015181550195019301610df0565b909150836000526020600020601f840160051c81019160208510610e8d575b90601f859493920160051c01905b818110610e7e57506107dc565b60008155849350600101610e71565b9091508190610e63565b60405162461bcd60e51b815260206004820152601b60248201527f4e6f206163746976652073657373696f6e20617661696c61626c6500000000006044820152606490fd5b60405162461bcd60e51b815260206004820152601960248201527f43616e64696461746520616c72656164792065786973747321000000000000006044820152606490fd5b346101715760203660031901126101715760043560095481101561017157600090600954811015610f895760099091527f6e1540171b6c0c960b71a7020d9f60077f6af931a8bbf590da0223dacf75c7af01546040516001600160a01b039091168152602090f35b634e487b7160e01b82526032600452602482fd5b3461017157600036600319011261017157600654610fbc8115156125e5565b806000526005602052610fd96001604060002001544210156126e1565b6000526005602052610ff560026040600020015442111561272d565b33600052600a60205261101060ff6040600020541615612816565b33600052600a6020526040600020600160ff19825416179055611032336127c4565b600654600052600560205260036040600020018054906001820180921161042657556006546040519081524260208201527fe5da07420f5f35ecc73d807687f8daeaf2004d494be4ac1c2583ef321873492a60403392a2005b34610171576020366003190112610171576004356001600160401b03811161017157366023820112156101715780600401356110c681612438565b916110d46040519384612417565b8183526024602084019260051b8201019036821161017157602401915b8183106112b157836006546111078115156125e5565b8060005260056020526111246001604060002001544210156126e1565b600052600560205261114060026040600020015442111561272d565b33600052600a60205261115b60ff6040600020541615612816565b60018151111561125e5733600052600a6020526040600020600160ff19825416179055611187336127c4565b60005b81518110156111ed576001600160a01b036111a582846125d1565b51168060005260086020526111c560086040600020015460065414612779565b600052600860205260056040600020019081546001810180911161042657600192550161118a565b508051600654600052600560205261120e6003604060002001918254612809565b90557f2a429da0ebb269deed90be02e30b879b9bb96b2f88f2bde28c9a78bc55ded2a36006549161124a604051916060835260608301906123be565b9260208201524260408201528033930390a2005b60405162461bcd60e51b815260206004820152602560248201527f4d75737420766f746520666f72206d6f7265207468616e206f6e652063616e64604482015264696461746560d81b6064820152608490fd5b82356001600160a01b0381168103610171578152602092830192016110f1565b34610171576020366003190112610171576112ea6122a7565b611372600654916112fc8315156125e5565b8260005260056020526113196001604060002001544210156126e1565b82600052600560205261133660026040600020015442111561272d565b33600052600a60205261135160ff6040600020541615612816565b60018060a01b03169182600052600860205260086040600020015414612779565b33600052600a6020526040600020600160ff19825416179055611394336127c4565b806000526008602052600560406000200180549060018201809211610426575560065460005260056020526003604060002001805490600182018092116104265755603c420490603c820291808304603c14901517156104265760009160065483526005602052600560408420019083526020526040822061141681546125b5565b90556006546040519081524260208201527f647822560e018adbf196ebed4703baf3ae318630886dddc759253f77be11800760403392a4005b34610171576000366003190112610171576020600654604051908152f35b34610171576000366003190112610171576003546040516001600160a01b039091168152602090f35b34610171576000366003190112610171576004546040516001600160a01b039091168152602090f35b34610171576040366003190112610171576114d86122a7565b600654602435916114ea8215156125e5565b8160005260056020526115076001604060002001544210156126e1565b81600052600560205261152460026040600020015442111561272d565b33600052600a60205260ff604060002054166116ba5782600052600b60205260ff60406000205416611666576115759060018060a01b03169182600052600860205260086040600020015414612779565b33600052600a6020526040600020600160ff1982541617905581600052600b6020526040600020600160ff198254161790556115b0336127c4565b600c54600160401b811015610ab7578060016115cf9201600c5561238b565b81549060031b9084821b91600019901b1916179055806000526008602052600560406000200180549060018201809211610426575560065460005260056020526003604060002001805490600182018092116104265755603c4204603c810290808204603c1490151715610426576006546000526005602052600560406000200190600052602052604060002061141681546125b5565b60405162461bcd60e51b815260206004820152602660248201527f546869732049442068617320616c7265616479206265656e207573656420746f60448201526520766f74652160d01b6064820152608490fd5b60405162461bcd60e51b815260206004820152601e60248201527f546869732077616c6c65742068617320616c726561647920766f7465642100006044820152606490fd5b3461017157600036600319011261017157604051806020600c5492838152018092600c6000527fdf6966c971051c3d54ec59162606531493a51404a002842f56009d7e5cf4a8c79060005b8181106117a35750505081611760910382612417565b6040519182916020830190602084525180915260408301919060005b81811061178a575050500390f35b825184528594506020938401939092019160010161177c565b825484526020909301926001928301920161174a565b34610171576000366003190112610171576102e16102cd6126ba565b3461017157602036600319011261017157600435600754811015610171576117fe60209161235a565b905460405160039290921b1c6001600160a01b03168152f35b3461017157602036600319011261017157600435600c548110156101715761184060209161238b565b90549060031b1c604051908152f35b346101715760203660031901126101715760043580151580611b68575b61187590612679565b80600052600560205261188f6001604060002001546128bd565b9060005260056020526118a86004604060002001612625565b908151916118b583612438565b6118c26040519182612417565b838152601f196118d185612438565b0160005b818110611b575750506118e784612583565b9360005b818110611afc57506001600160a01b039050611906836125c4565b5116928360005260086020526005604060002001549160015b84518110156119a5576001600160a01b0361193a82876125d1565b51166000526008602052836005604060002001541161195c575b60010161191f565b945091506001600160a01b0361197285856125d1565b51166000908152600860205260409020600501549160016001600160a01b0361199b87876125d1565b5116959050611954565b6001600160a01b038616600090815260086020526040908190209051849089856119ce836123fb565b845483526119de600186016124df565b60208401526119ef600286016124df565b60408401908152611a02600387016124df565b6060850152611a13600487016124df565b608085015260058601549360a08101948552610100600860018060a01b0360068a0154169860c08401998a52611a4b600782016124df565b60e08501520154910152519460018060a01b039051169251916040519460c0860190865260c06020870152825180915260e0860190602060e08260051b8901019401916000905b828210611ad1575050505094611ab482869787611ac2950360408901526122bd565b908582036060870152612319565b91608084015260a08301520390f35b90919294602080611aee60019360df198d82030186528951612319565b970192019201909291611a92565b6001906001600160a01b03611b1182876125d1565b5116600052600860205260056040600020611b2e600282016124df565b611b3884886125d1565b52611b4383876125d1565b500154611b5082896125d1565b52016118eb565b8060606020809386010152016118d5565b5060015481111561186c565b3461017157600036600319011261017157600754611b9181612438565b90611b9f6040519283612417565b808252601f19611bae82612438565b0160005b818110611d8957505060005b818110611cbc57826040518091602082016020835281518091526040830190602060408260051b8601019301916000905b828210611bfe57505050500390f35b919360019193955060208091603f198982030185528751908151815261010080611ca6611c79611c67611c55611c43898901516101208b8a0152610120890190612319565b604089015188820360408a0152612319565b60608801518782036060890152612319565b60808701518682036080880152612319565b60a086015160a0860152888060a01b0360c08701511660c086015260e086015185820360e0870152612319565b9301519101529601920192018594939192611bef565b80611cc860019261235a565b838060a01b0391549060031b1c1660005260086020526040600020600860405191611cf2836123fb565b80548352611d018582016124df565b6020840152611d12600282016124df565b6040840152611d23600382016124df565b6060840152611d34600482016124df565b6080840152600581015460a0840152848060a01b0360068201541660c0840152611d60600782016124df565b60e08401520154610100820152611d7782866125d1565b52611d8281856125d1565b5001611bbe565b602090604051611d98816123fb565b600081526060838201526060604082015260608082015260606080820152600060a0820152600060c0820152606060e0820152600061010082015282828701015201611bb2565b34610171576020366003190112610171576001600160a01b03611e006122a7565b1660005260086020526040600020610120604051611e1d816123fb565b82548152611e2d600184016124df565b60208201908152611f1c611e43600286016124df565b946040840195865260e0611f09611e5c600384016124df565b60608701908152610518611e72600486016124df565b916080890192835260058601549260a08a01938452611ef6600860018060a01b0360068a0154169860c08d01998a528c611eae600783016124df565b998a9101520154998a6101008d0152519c519a519251915194519760018060a01b039051169a611ee86040519e8f9e8f8181520190612319565b8d810360208f015290612319565b9160408c01528a820360608c0152612319565b9160a087015285820360c0870152612319565b9160e08401526101008301520390f35b3461017157600036600319011261017157600654611f4b8115156125e5565b60005260056020526040600020600281015442111561217d576004611f709101612625565b80511561212c576001600160a01b03611f88826125c4565b5116908160005260086020526005604060002001549060015b8151811015612027576001600160a01b03611fbc82846125d1565b511660005260086020528260056040600020015411611fde575b600101611fa1565b925090506001600160a01b03611ff483836125d1565b51166000908152600860205260409020600501549060016001600160a01b0361201d85846125d1565b5116939050611fd6565b8360018060a01b0316600052600860205261210660406000206102e160405161204f816123fb565b8254815261205f600184016124df565b602082015261211e612073600285016124df565b9160408101928352612087600386016124df565b6060820190815261209a600487016124df565b936080830194855260058701549260a08101938452610100600860018060a01b0360068b0154169960c084019a8b526120d5600782016124df565b60e08501520154910152519560018060a01b039051169151935190519360405197889760a0895260a0890190612319565b92602088015260408701528582036060870152612319565b908382036080850152612319565b60405162461bcd60e51b8152602060048201526024808201527f4e6f2063616e6469646174657320696e207468652063757272656e742073657360448201526339b4b7b760e11b6064820152608490fd5b60405162461bcd60e51b815260206004820152602160248201527f43757272656e742073657373696f6e20686173206e6f7420656e6465642079656044820152601d60fa1b6064820152608490fd5b34610171576000366003190112610171576001546121e981612583565b6121f282612583565b9160015b8181111561220f5750506102e1604051928392836122f1565b8060005260056020526122296001604060002001546128bd565b906000198101818111610426576122679261224482876125d1565b5281600052600560205261226160036040600020015491876125d1565b526125b5565b6121f6565b34610171576020366003190112610171576020906001600160a01b036122906122a7565b16600052600a825260ff6040600020541615158152f35b600435906001600160a01b038216820361017157565b906020808351928381520192019060005b8181106122db5750505090565b82518452602093840193909201916001016122ce565b9091612308612316936040845260408401906122bd565b9160208184039101526122bd565b90565b919082519283825260005b848110612345575050826000602080949584010152601f8019910116010190565b80602080928401015182828601015201612324565b60075481101561237557600760005260206000200190600090565b634e487b7160e01b600052603260045260246000fd5b600c5481101561237557600c60005260206000200190600090565b80548210156123755760005260206000200190600090565b906020808351928381520192019060005b8181106123dc5750505090565b82516001600160a01b03168452602093840193909201916001016123cf565b61012081019081106001600160401b03821117610ab757604052565b90601f801991011681019081106001600160401b03821117610ab757604052565b6001600160401b038111610ab75760051b60200190565b81601f82011215610171578035906001600160401b038211610ab75760405192612483601f8401601f191660200185612417565b8284526020838301011161017157816000926020809301838601378301015290565b90600182811c921680156124d5575b60208310146124bf57565b634e487b7160e01b600052602260045260246000fd5b91607f16916124b4565b90604051918260008254926124f3846124a5565b8084529360018116908115612561575060011461251a575b5061251892500383612417565b565b90506000929192526020600020906000915b818310612545575050906020612518928201013861250b565b602091935080600191548385890101520191019091849261252c565b90506020925061251894915060ff191682840152151560051b8201013861250b565b9061258d82612438565b61259a6040519182612417565b82815280926125ab601f1991612438565b0190602036910137565b60001981146104265760010190565b8051156123755760200190565b80518210156123755760209160051b010190565b156125ec57565b60405162461bcd60e51b815260206004820152601160248201527027379030b1ba34bb329039b2b9b9b4b7b760791b6044820152606490fd5b906040519182815491828252602082019060005260206000209260005b81811061265757505061251892500383612417565b84546001600160a01b0316835260019485019487945060209093019201612642565b1561268057565b60405162461bcd60e51b8152602060048201526012602482015271125b9d985b1a59081cd95cdcda5bdb88125160721b6044820152606490fd5b60065480156126db5760005260056020526123166004604060002001612625565b50606090565b156126e857565b60405162461bcd60e51b815260206004820152601b60248201527f566f74696e6720686173206e6f742073746172746564207965742100000000006044820152606490fd5b1561273457565b60405162461bcd60e51b815260206004820152601860248201527f566f74696e6720706572696f642068617320656e6465642100000000000000006044820152606490fd5b1561278057565b606460405162461bcd60e51b815260206004820152602060248201527f43616e646964617465206e6f7420696e2063757272656e742073657373696f6e6044820152fd5b600954600160401b811015610ab7578060016127e5920160095560096123a6565b81546001600160a01b0393841660039290921b91821b9390911b1916919091179055565b9190820180921161042657565b1561281d57565b60405162461bcd60e51b815260206004820152601760248201527f596f75206861766520616c726561647920766f746564210000000000000000006044820152606490fd5b1561286957565b60405162461bcd60e51b815260206004820152602660248201527f4f6e6c79206f7267616e697a65722063616e20706572666f726d20746869732060448201526530b1ba34b7b760d11b6064820152608490fd5b6201518090046105b581048060021b90808204600414901517156104265761016d6105b56128ed93060490612809565b6107b201806107b211610426579056fea264697066735822122035a476920d3b1e28961b5fefcdaab390a13fdc65f9aa8372d4d3e0b44500818564736f6c634300081c0033",
  "linkReferences": {},
  "deployedLinkReferences": {}
}