{
  "_format": "hh-sol-artifact-1",
  "contractName": "Create",
  "sourceName": "contracts/VotingContract.sol",
  "abi": [
    {
      "inputs": [],
      "stateMutability": "nonpayable",
      "type": "constructor"
    },
    {
      "anonymous": false,
      "inputs": [
        {
          "indexed": true,
          "internalType": "uint256",
          "name": "candidateId",
          "type": "uint256"
        },
        {
          "indexed": false,
          "internalType": "string",
          "name": "age",
          "type": "string"
        },
        {
          "indexed": false,
          "internalType": "string",
          "name": "name",
          "type": "string"
        },
        {
          "indexed": false,
          "internalType": "string",
          "name": "image",
          "type": "string"
        },
        {
          "indexed": false,
          "internalType": "uint256",
          "name": "voteCount",
          "type": "uint256"
        },
        {
          "indexed": false,
          "internalType": "address",
          "name": "_address",
          "type": "address"
        },
        {
          "indexed": false,
          "internalType": "string",
          "name": "ipfs",
          "type": "string"
        }
      ],
      "name": "CandidateCreate",
      "type": "event"
    },
    {
      "anonymous": false,
      "inputs": [
        {
          "indexed": true,
          "internalType": "uint256",
          "name": "voter_voterId",
          "type": "uint256"
        },
        {
          "indexed": false,
          "internalType": "string",
          "name": "voter_name",
          "type": "string"
        },
        {
          "indexed": false,
          "internalType": "string",
          "name": "voter_image",
          "type": "string"
        },
        {
          "indexed": false,
          "internalType": "address",
          "name": "voter_address",
          "type": "address"
        },
        {
          "indexed": false,
          "internalType": "uint256",
          "name": "voter_allowed",
          "type": "uint256"
        },
        {
          "indexed": false,
          "internalType": "bool",
          "name": "voter_voted",
          "type": "bool"
        },
        {
          "indexed": false,
          "internalType": "uint256",
          "name": "voter_vote",
          "type": "uint256"
        },
        {
          "indexed": false,
          "internalType": "string",
          "name": "voter_ipfs",
          "type": "string"
        }
      ],
      "name": "VoterCreated",
      "type": "event"
    },
    {
      "inputs": [
        {
          "internalType": "uint256",
          "name": "",
          "type": "uint256"
        }
      ],
      "name": "candidateAddress",
      "outputs": [
        {
          "internalType": "address",
          "name": "",
          "type": "address"
        }
      ],
      "stateMutability": "view",
      "type": "function"
    },
    {
      "inputs": [
        {
          "internalType": "address",
          "name": "",
          "type": "address"
        }
      ],
      "name": "candidates",
      "outputs": [
        {
          "internalType": "uint256",
          "name": "candidateId",
          "type": "uint256"
        },
        {
          "internalType": "string",
          "name": "age",
          "type": "string"
        },
        {
          "internalType": "string",
          "name": "name",
          "type": "string"
        },
        {
          "internalType": "string",
          "name": "image",
          "type": "string"
        },
        {
          "internalType": "uint256",
          "name": "voteCount",
          "type": "uint256"
        },
        {
          "internalType": "address",
          "name": "_address",
          "type": "address"
        },
        {
          "internalType": "string",
          "name": "ipfs",
          "type": "string"
        }
      ],
      "stateMutability": "view",
      "type": "function"
    },
    {
      "inputs": [],
      "name": "getCandidate",
      "outputs": [
        {
          "internalType": "address[]",
          "name": "",
          "type": "address[]"
        }
      ],
      "stateMutability": "view",
      "type": "function"
    },
    {
      "inputs": [
        {
          "internalType": "address",
          "name": "_address",
          "type": "address"
        }
      ],
      "name": "getCandidateData",
      "outputs": [
        {
          "internalType": "string",
          "name": "",
          "type": "string"
        },
        {
          "internalType": "string",
          "name": "",
          "type": "string"
        },
        {
          "internalType": "uint256",
          "name": "",
          "type": "uint256"
        },
        {
          "internalType": "string",
          "name": "",
          "type": "string"
        },
        {
          "internalType": "uint256",
          "name": "",
          "type": "uint256"
        },
        {
          "internalType": "string",
          "name": "",
          "type": "string"
        },
        {
          "internalType": "address",
          "name": "",
          "type": "address"
        }
      ],
      "stateMutability": "view",
      "type": "function"
    },
    {
      "inputs": [],
      "name": "getCandidateLenght",
      "outputs": [
        {
          "internalType": "uint256",
          "name": "",
          "type": "uint256"
        }
      ],
      "stateMutability": "view",
      "type": "function"
    },
    {
      "inputs": [],
      "name": "getVotedVoterList",
      "outputs": [
        {
          "internalType": "address[]",
          "name": "",
          "type": "address[]"
        }
      ],
      "stateMutability": "view",
      "type": "function"
    },
    {
      "inputs": [],
      "name": "getVoterLenght",
      "outputs": [
        {
          "internalType": "uint256",
          "name": "",
          "type": "uint256"
        }
      ],
      "stateMutability": "view",
      "type": "function"
    },
    {
      "inputs": [],
      "name": "getVoterList",
      "outputs": [
        {
          "internalType": "address[]",
          "name": "",
          "type": "address[]"
        }
      ],
      "stateMutability": "view",
      "type": "function"
    },
    {
      "inputs": [
        {
          "internalType": "address",
          "name": "_address",
          "type": "address"
        }
      ],
      "name": "getVoterdata",
      "outputs": [
        {
          "internalType": "uint256",
          "name": "",
          "type": "uint256"
        },
        {
          "internalType": "string",
          "name": "",
          "type": "string"
        },
        {
          "internalType": "string",
          "name": "",
          "type": "string"
        },
        {
          "internalType": "address",
          "name": "",
          "type": "address"
        },
        {
          "internalType": "string",
          "name": "",
          "type": "string"
        },
        {
          "internalType": "uint256",
          "name": "",
          "type": "uint256"
        },
        {
          "internalType": "bool",
          "name": "",
          "type": "bool"
        }
      ],
      "stateMutability": "view",
      "type": "function"
    },
    {
      "inputs": [
        {
          "internalType": "address",
          "name": "_address",
          "type": "address"
        },
        {
          "internalType": "string",
          "name": "_age",
          "type": "string"
        },
        {
          "internalType": "string",
          "name": "_name",
          "type": "string"
        },
        {
          "internalType": "string",
          "name": "_image",
          "type": "string"
        },
        {
          "internalType": "string",
          "name": "_ipfs",
          "type": "string"
        }
      ],
      "name": "setCandidate",
      "outputs": [],
      "stateMutability": "nonpayable",
      "type": "function"
    },
    {
      "inputs": [
        {
          "internalType": "address",
          "name": "_candidateIdaAddress",
          "type": "address"
        },
        {
          "internalType": "uint256",
          "name": "_candidateVoteId",
          "type": "uint256"
        }
      ],
      "name": "vote",
      "outputs": [],
      "stateMutability": "nonpayable",
      "type": "function"
    },
    {
      "inputs": [
        {
          "internalType": "uint256",
          "name": "",
          "type": "uint256"
        }
      ],
      "name": "votedVoters",
      "outputs": [
        {
          "internalType": "address",
          "name": "",
          "type": "address"
        }
      ],
      "stateMutability": "view",
      "type": "function"
    },
    {
      "inputs": [
        {
          "internalType": "uint256",
          "name": "",
          "type": "uint256"
        }
      ],
      "name": "voterAdress",
      "outputs": [
        {
          "internalType": "address",
          "name": "",
          "type": "address"
        }
      ],
      "stateMutability": "view",
      "type": "function"
    },
    {
      "inputs": [
        {
          "internalType": "address",
          "name": "_address",
          "type": "address"
        },
        {
          "internalType": "string",
          "name": "_name",
          "type": "string"
        },
        {
          "internalType": "string",
          "name": "_image",
          "type": "string"
        },
        {
          "internalType": "string",
          "name": "_ipfs",
          "type": "string"
        }
      ],
      "name": "voterRight",
      "outputs": [],
      "stateMutability": "nonpayable",
      "type": "function"
    },
    {
      "inputs": [
        {
          "internalType": "address",
          "name": "",
          "type": "address"
        }
      ],
      "name": "voters",
      "outputs": [
        {
          "internalType": "uint256",
          "name": "voter_voterId",
          "type": "uint256"
        },
        {
          "internalType": "string",
          "name": "voter_name",
          "type": "string"
        },
        {
          "internalType": "string",
          "name": "voter_image",
          "type": "string"
        },
        {
          "internalType": "address",
          "name": "voter_address",
          "type": "address"
        },
        {
          "internalType": "uint256",
          "name": "voter_allowed",
          "type": "uint256"
        },
        {
          "internalType": "bool",
          "name": "voter_voted",
          "type": "bool"
        },
        {
          "internalType": "uint256",
          "name": "voter_vote",
          "type": "uint256"
        },
        {
          "internalType": "string",
          "name": "voter_ipfs",
          "type": "string"
        }
      ],
      "stateMutability": "view",
      "type": "function"
    },
    {
      "inputs": [],
      "name": "votingOrganizer",
      "outputs": [
        {
          "internalType": "address",
          "name": "",
          "type": "address"
        }
      ],
      "stateMutability": "view",
      "type": "function"
    }
  ],
  "bytecode": "0x6080604052348015600f57600080fd5b5033600260006101000a81548173ffffffffffffffffffffffffffffffffffffffff021916908373ffffffffffffffffffffffffffffffffffffffff1602179055506127f6806100606000396000f3fe608060405234801561001057600080fd5b50600436106101005760003560e01c80637831ffb311610097578063b28d92ae11610066578063b28d92ae146102e8578063c5036fd414610306578063c91ec7121461033c578063e9c22e181461035857610100565b80637831ffb31461022d5780638ab66a901461025d5780638e94568514610293578063a3ec138d146102b157610100565b80634d5ac4f6116100d35780634d5ac4f6146101a55780635cc48aa7146101d55780635f74bbde146101f357806370218b851461020f57610100565b80630361419e146101055780631de5516b146101215780632a466ac71461013f5780633a88251a14610175575b600080fd5b61011f600480360381019061011a9190611b11565b610376565b005b6101296105ee565b6040516101369190611be5565b60405180910390f35b61015960048036038101906101549190611c00565b6105fb565b60405161016c9796959493929190611cbb565b60405180910390f35b61018f600480360381019061018a9190611d72565b610a42565b60405161019c9190611d9f565b60405180910390f35b6101bf60048036038101906101ba9190611d72565b610a81565b6040516101cc9190611d9f565b60405180910390f35b6101dd610ac0565b6040516101ea9190611d9f565b60405180910390f35b61020d60048036038101906102089190611dba565b610ae6565b005b610217610cad565b6040516102249190611eb8565b60405180910390f35b61024760048036038101906102429190611d72565b610d3b565b6040516102549190611d9f565b60405180910390f35b61027760048036038101906102729190611c00565b610d7a565b60405161028a9796959493929190611eda565b60405180910390f35b61029b610ffc565b6040516102a89190611eb8565b60405180910390f35b6102cb60048036038101906102c69190611c00565b61108a565b6040516102df989796959493929190611f80565b60405180910390f35b6102f0611297565b6040516102fd9190611eb8565b60405180910390f35b610320600480360381019061031b9190611c00565b611325565b6040516103339796959493929190612013565b60405180910390f35b61035660048036038101906103519190612097565b6116ed565b005b610360611928565b60405161036d9190611be5565b60405180910390f35b3373ffffffffffffffffffffffffffffffffffffffff16600260009054906101000a900473ffffffffffffffffffffffffffffffffffffffff1673ffffffffffffffffffffffffffffffffffffffff1614610406576040517f08c379a00000000000000000000000000000000000000000000000000000000081526004016103fd906121ce565b60405180910390fd5b6104106000611935565b600061041c600061194b565b90506000600760008773ffffffffffffffffffffffffffffffffffffffff1673ffffffffffffffffffffffffffffffffffffffff1681526020019081526020016000209050600081600401541461047257600080fd5b600181600401819055508481600101908161048d91906123fa565b508381600201908161049f91906123fa565b50858160030160006101000a81548173ffffffffffffffffffffffffffffffffffffffff021916908373ffffffffffffffffffffffffffffffffffffffff1602179055508181600001819055506103e8816006018190555060008160050160006101000a81548160ff0219169083151502179055508281600701908161052591906123fa565b506006869080600181540180825580915050600190039060005260206000200160009091909190916101000a81548173ffffffffffffffffffffffffffffffffffffffff021916908373ffffffffffffffffffffffffffffffffffffffff160217905550817ff5f39971dd62d9929e3a9feaa6bb77fe7c7da0001babff8a65a7e51ad0201c1986868985600401548660050160009054906101000a900460ff1687600601548a6040516105de97969594939291906124cc565b60405180910390a2505050505050565b6000600680549050905090565b60608060006060600060606000600460008973ffffffffffffffffffffffffffffffffffffffff1673ffffffffffffffffffffffffffffffffffffffff168152602001908152602001600020600101600460008a73ffffffffffffffffffffffffffffffffffffffff1673ffffffffffffffffffffffffffffffffffffffff168152602001908152602001600020600201600460008b73ffffffffffffffffffffffffffffffffffffffff1673ffffffffffffffffffffffffffffffffffffffff16815260200190815260200160002060000154600460008c73ffffffffffffffffffffffffffffffffffffffff1673ffffffffffffffffffffffffffffffffffffffff168152602001908152602001600020600301600460008d73ffffffffffffffffffffffffffffffffffffffff1673ffffffffffffffffffffffffffffffffffffffff16815260200190815260200160002060040154600460008e73ffffffffffffffffffffffffffffffffffffffff1673ffffffffffffffffffffffffffffffffffffffff168152602001908152602001600020600601600460008f73ffffffffffffffffffffffffffffffffffffffff1673ffffffffffffffffffffffffffffffffffffffff16815260200190815260200160002060050160009054906101000a900473ffffffffffffffffffffffffffffffffffffffff168680546108059061221d565b80601f01602080910402602001604051908101604052809291908181526020018280546108319061221d565b801561087e5780601f106108535761010080835404028352916020019161087e565b820191906000526020600020905b81548152906001019060200180831161086157829003601f168201915b505050505096508580546108919061221d565b80601f01602080910402602001604051908101604052809291908181526020018280546108bd9061221d565b801561090a5780601f106108df5761010080835404028352916020019161090a565b820191906000526020600020905b8154815290600101906020018083116108ed57829003601f168201915b5050505050955083805461091d9061221d565b80601f01602080910402602001604051908101604052809291908181526020018280546109499061221d565b80156109965780601f1061096b57610100808354040283529160200191610996565b820191906000526020600020905b81548152906001019060200180831161097957829003601f168201915b505050505093508180546109a99061221d565b80601f01602080910402602001604051908101604052809291908181526020018280546109d59061221d565b8015610a225780601f106109f757610100808354040283529160200191610a22565b820191906000526020600020905b815481529060010190602001808311610a0557829003601f168201915b505050505091509650965096509650965096509650919395979092949650565b60038181548110610a5257600080fd5b906000526020600020016000915054906101000a900473ffffffffffffffffffffffffffffffffffffffff1681565b60068181548110610a9157600080fd5b906000526020600020016000915054906101000a900473ffffffffffffffffffffffffffffffffffffffff1681565b600260009054906101000a900473ffffffffffffffffffffffffffffffffffffffff1681565b6000600760003373ffffffffffffffffffffffffffffffffffffffff1673ffffffffffffffffffffffffffffffffffffffff16815260200190815260200160002090508060050160009054906101000a900460ff1615610b7b576040517f08c379a0000000000000000000000000000000000000000000000000000000008152600401610b729061259c565b60405180910390fd5b6000816004015403610bc2576040517f08c379a0000000000000000000000000000000000000000000000000000000008152600401610bb99061262e565b60405180910390fd5b60018160050160006101000a81548160ff0219169083151502179055508181600601819055506005339080600181540180825580915050600190039060005260206000200160009091909190916101000a81548173ffffffffffffffffffffffffffffffffffffffff021916908373ffffffffffffffffffffffffffffffffffffffff1602179055508060040154600460008573ffffffffffffffffffffffffffffffffffffffff1673ffffffffffffffffffffffffffffffffffffffff1681526020019081526020016000206004016000828254610ca1919061267d565b92505081905550505050565b60606003805480602002602001604051908101604052809291908181526020018280548015610d3157602002820191906000526020600020905b8160009054906101000a900473ffffffffffffffffffffffffffffffffffffffff1673ffffffffffffffffffffffffffffffffffffffff1681526020019060010190808311610ce7575b5050505050905090565b60058181548110610d4b57600080fd5b906000526020600020016000915054906101000a900473ffffffffffffffffffffffffffffffffffffffff1681565b6004602052806000526040600020600091509050806000015490806001018054610da39061221d565b80601f0160208091040260200160405190810160405280929190818152602001828054610dcf9061221d565b8015610e1c5780601f10610df157610100808354040283529160200191610e1c565b820191906000526020600020905b815481529060010190602001808311610dff57829003601f168201915b505050505090806002018054610e319061221d565b80601f0160208091040260200160405190810160405280929190818152602001828054610e5d9061221d565b8015610eaa5780601f10610e7f57610100808354040283529160200191610eaa565b820191906000526020600020905b815481529060010190602001808311610e8d57829003601f168201915b505050505090806003018054610ebf9061221d565b80601f0160208091040260200160405190810160405280929190818152602001828054610eeb9061221d565b8015610f385780601f10610f0d57610100808354040283529160200191610f38565b820191906000526020600020905b815481529060010190602001808311610f1b57829003601f168201915b5050505050908060040154908060050160009054906101000a900473ffffffffffffffffffffffffffffffffffffffff1690806006018054610f799061221d565b80601f0160208091040260200160405190810160405280929190818152602001828054610fa59061221d565b8015610ff25780601f10610fc757610100808354040283529160200191610ff2565b820191906000526020600020905b815481529060010190602001808311610fd557829003601f168201915b5050505050905087565b6060600580548060200260200160405190810160405280929190818152602001828054801561108057602002820191906000526020600020905b8160009054906101000a900473ffffffffffffffffffffffffffffffffffffffff1673ffffffffffffffffffffffffffffffffffffffff1681526020019060010190808311611036575b5050505050905090565b60076020528060005260406000206000915090508060000154908060010180546110b39061221d565b80601f01602080910402602001604051908101604052809291908181526020018280546110df9061221d565b801561112c5780601f106111015761010080835404028352916020019161112c565b820191906000526020600020905b81548152906001019060200180831161110f57829003601f168201915b5050505050908060020180546111419061221d565b80601f016020809104026020016040519081016040528092919081815260200182805461116d9061221d565b80156111ba5780601f1061118f576101008083540402835291602001916111ba565b820191906000526020600020905b81548152906001019060200180831161119d57829003601f168201915b5050505050908060030160009054906101000a900473ffffffffffffffffffffffffffffffffffffffff16908060040154908060050160009054906101000a900460ff16908060060154908060070180546112149061221d565b80601f01602080910402602001604051908101604052809291908181526020018280546112409061221d565b801561128d5780601f106112625761010080835404028352916020019161128d565b820191906000526020600020905b81548152906001019060200180831161127057829003601f168201915b5050505050905088565b6060600680548060200260200160405190810160405280929190818152602001828054801561131b57602002820191906000526020600020905b8160009054906101000a900473ffffffffffffffffffffffffffffffffffffffff1673ffffffffffffffffffffffffffffffffffffffff16815260200190600101908083116112d1575b5050505050905090565b600060608060006060600080600760008973ffffffffffffffffffffffffffffffffffffffff1673ffffffffffffffffffffffffffffffffffffffff16815260200190815260200160002060000154600760008a73ffffffffffffffffffffffffffffffffffffffff1673ffffffffffffffffffffffffffffffffffffffff168152602001908152602001600020600101600760008b73ffffffffffffffffffffffffffffffffffffffff1673ffffffffffffffffffffffffffffffffffffffff168152602001908152602001600020600201600760008c73ffffffffffffffffffffffffffffffffffffffff1673ffffffffffffffffffffffffffffffffffffffff16815260200190815260200160002060030160009054906101000a900473ffffffffffffffffffffffffffffffffffffffff16600760008d73ffffffffffffffffffffffffffffffffffffffff1673ffffffffffffffffffffffffffffffffffffffff168152602001908152602001600020600701600760008e73ffffffffffffffffffffffffffffffffffffffff1673ffffffffffffffffffffffffffffffffffffffff16815260200190815260200160002060040154600760008f73ffffffffffffffffffffffffffffffffffffffff1673ffffffffffffffffffffffffffffffffffffffff16815260200190815260200160002060050160009054906101000a900460ff1685805461153c9061221d565b80601f01602080910402602001604051908101604052809291908181526020018280546115689061221d565b80156115b55780601f1061158a576101008083540402835291602001916115b5565b820191906000526020600020905b81548152906001019060200180831161159857829003601f168201915b505050505095508480546115c89061221d565b80601f01602080910402602001604051908101604052809291908181526020018280546115f49061221d565b80156116415780601f1061161657610100808354040283529160200191611641565b820191906000526020600020905b81548152906001019060200180831161162457829003601f168201915b505050505094508280546116549061221d565b80601f01602080910402602001604051908101604052809291908181526020018280546116809061221d565b80156116cd5780601f106116a2576101008083540402835291602001916116cd565b820191906000526020600020905b8154815290600101906020018083116116b057829003601f168201915b505050505092509650965096509650965096509650919395979092949650565b3373ffffffffffffffffffffffffffffffffffffffff16600260009054906101000a900473ffffffffffffffffffffffffffffffffffffffff1673ffffffffffffffffffffffffffffffffffffffff161461177d576040517f08c379a000000000000000000000000000000000000000000000000000000000815260040161177490612723565b60405180910390fd5b6117876001611935565b6000611793600161194b565b90506000600460008873ffffffffffffffffffffffffffffffffffffffff1673ffffffffffffffffffffffffffffffffffffffff1681526020019081526020016000209050858160010190816117e991906123fa565b50848160020190816117fb91906123fa565b508181600001819055508381600301908161181691906123fa565b5060008160040181905550868160050160006101000a81548173ffffffffffffffffffffffffffffffffffffffff021916908373ffffffffffffffffffffffffffffffffffffffff1602179055508281600601908161187591906123fa565b506003879080600181540180825580915050600190039060005260206000200160009091909190916101000a81548173ffffffffffffffffffffffffffffffffffffffff021916908373ffffffffffffffffffffffffffffffffffffffff160217905550817fd297f12b256bb8485a6013fb5e302017018123e99a0ebb20756c09e1707b4b9087878785600401548c8960405161191796959493929190612743565b60405180910390a250505050505050565b6000600380549050905090565b6001816000016000828254019250508190555050565b600081600001549050919050565b6000604051905090565b600080fd5b600080fd5b600073ffffffffffffffffffffffffffffffffffffffff82169050919050565b60006119988261196d565b9050919050565b6119a88161198d565b81146119b357600080fd5b50565b6000813590506119c58161199f565b92915050565b600080fd5b600080fd5b6000601f19601f8301169050919050565b7f4e487b7100000000000000000000000000000000000000000000000000000000600052604160045260246000fd5b611a1e826119d5565b810181811067ffffffffffffffff82111715611a3d57611a3c6119e6565b5b80604052505050565b6000611a50611959565b9050611a5c8282611a15565b919050565b600067ffffffffffffffff821115611a7c57611a7b6119e6565b5b611a85826119d5565b9050602081019050919050565b82818337600083830152505050565b6000611ab4611aaf84611a61565b611a46565b905082815260208101848484011115611ad057611acf6119d0565b5b611adb848285611a92565b509392505050565b600082601f830112611af857611af76119cb565b5b8135611b08848260208601611aa1565b91505092915050565b60008060008060808587031215611b2b57611b2a611963565b5b6000611b39878288016119b6565b945050602085013567ffffffffffffffff811115611b5a57611b59611968565b5b611b6687828801611ae3565b935050604085013567ffffffffffffffff811115611b8757611b86611968565b5b611b9387828801611ae3565b925050606085013567ffffffffffffffff811115611bb457611bb3611968565b5b611bc087828801611ae3565b91505092959194509250565b6000819050919050565b611bdf81611bcc565b82525050565b6000602082019050611bfa6000830184611bd6565b92915050565b600060208284031215611c1657611c15611963565b5b6000611c24848285016119b6565b91505092915050565b600081519050919050565b600082825260208201905092915050565b60005b83811015611c67578082015181840152602081019050611c4c565b60008484015250505050565b6000611c7e82611c2d565b611c888185611c38565b9350611c98818560208601611c49565b611ca1816119d5565b840191505092915050565b611cb58161198d565b82525050565b600060e0820190508181036000830152611cd5818a611c73565b90508181036020830152611ce98189611c73565b9050611cf86040830188611bd6565b8181036060830152611d0a8187611c73565b9050611d196080830186611bd6565b81810360a0830152611d2b8185611c73565b9050611d3a60c0830184611cac565b98975050505050505050565b611d4f81611bcc565b8114611d5a57600080fd5b50565b600081359050611d6c81611d46565b92915050565b600060208284031215611d8857611d87611963565b5b6000611d9684828501611d5d565b91505092915050565b6000602082019050611db46000830184611cac565b92915050565b60008060408385031215611dd157611dd0611963565b5b6000611ddf858286016119b6565b9250506020611df085828601611d5d565b9150509250929050565b600081519050919050565b600082825260208201905092915050565b6000819050602082019050919050565b611e2f8161198d565b82525050565b6000611e418383611e26565b60208301905092915050565b6000602082019050919050565b6000611e6582611dfa565b611e6f8185611e05565b9350611e7a83611e16565b8060005b83811015611eab578151611e928882611e35565b9750611e9d83611e4d565b925050600181019050611e7e565b5085935050505092915050565b60006020820190508181036000830152611ed28184611e5a565b905092915050565b600060e082019050611eef600083018a611bd6565b8181036020830152611f018189611c73565b90508181036040830152611f158188611c73565b90508181036060830152611f298187611c73565b9050611f386080830186611bd6565b611f4560a0830185611cac565b81810360c0830152611f578184611c73565b905098975050505050505050565b60008115159050919050565b611f7a81611f65565b82525050565b600061010082019050611f96600083018b611bd6565b8181036020830152611fa8818a611c73565b90508181036040830152611fbc8189611c73565b9050611fcb6060830188611cac565b611fd86080830187611bd6565b611fe560a0830186611f71565b611ff260c0830185611bd6565b81810360e08301526120048184611c73565b90509998505050505050505050565b600060e082019050612028600083018a611bd6565b818103602083015261203a8189611c73565b9050818103604083015261204e8188611c73565b905061205d6060830187611cac565b818103608083015261206f8186611c73565b905061207e60a0830185611bd6565b61208b60c0830184611f71565b98975050505050505050565b600080600080600060a086880312156120b3576120b2611963565b5b60006120c1888289016119b6565b955050602086013567ffffffffffffffff8111156120e2576120e1611968565b5b6120ee88828901611ae3565b945050604086013567ffffffffffffffff81111561210f5761210e611968565b5b61211b88828901611ae3565b935050606086013567ffffffffffffffff81111561213c5761213b611968565b5b61214888828901611ae3565b925050608086013567ffffffffffffffff81111561216957612168611968565b5b61217588828901611ae3565b9150509295509295909350565b7f4f6e6c79204f7267616e697365722063616e20616464206120566f7465722100600082015250565b60006121b8601f83611c38565b91506121c382612182565b602082019050919050565b600060208201905081810360008301526121e7816121ab565b9050919050565b7f4e487b7100000000000000000000000000000000000000000000000000000000600052602260045260246000fd5b6000600282049050600182168061223557607f821691505b602082108103612248576122476121ee565b5b50919050565b60008190508160005260206000209050919050565b60006020601f8301049050919050565b600082821b905092915050565b6000600883026122b07fffffffffffffffffffffffffffffffffffffffffffffffffffffffffffffffff82612273565b6122ba8683612273565b95508019841693508086168417925050509392505050565b6000819050919050565b60006122f76122f26122ed84611bcc565b6122d2565b611bcc565b9050919050565b6000819050919050565b612311836122dc565b61232561231d826122fe565b848454612280565b825550505050565b600090565b61233a61232d565b612345818484612308565b505050565b5b818110156123695761235e600082612332565b60018101905061234b565b5050565b601f8211156123ae5761237f8161224e565b61238884612263565b81016020851015612397578190505b6123ab6123a385612263565b83018261234a565b50505b505050565b600082821c905092915050565b60006123d1600019846008026123b3565b1980831691505092915050565b60006123ea83836123c0565b9150826002028217905092915050565b61240382611c2d565b67ffffffffffffffff81111561241c5761241b6119e6565b5b612426825461221d565b61243182828561236d565b600060209050601f8311600181146124645760008415612452578287015190505b61245c85826123de565b8655506124c4565b601f1984166124728661224e565b60005b8281101561249a57848901518255600182019150602085019450602081019050612475565b868310156124b757848901516124b3601f8916826123c0565b8355505b6001600288020188555050505b505050505050565b600060e08201905081810360008301526124e6818a611c73565b905081810360208301526124fa8189611c73565b90506125096040830188611cac565b6125166060830187611bd6565b6125236080830186611f71565b61253060a0830185611bd6565b81810360c08301526125428184611c73565b905098975050505050505050565b7f596f75206861766520616c726561647920766f746564206861206b6861796921600082015250565b6000612586602083611c38565b915061259182612550565b602082019050919050565b600060208201905081810360008301526125b581612579565b9050919050565b7f596f752068617665206e6f20726967687420746f20766f74652c206e7461206d60008201527f6163686920626e6164656d2e0000000000000000000000000000000000000000602082015250565b6000612618602c83611c38565b9150612623826125bc565b604082019050919050565b600060208201905081810360008301526126478161260b565b9050919050565b7f4e487b7100000000000000000000000000000000000000000000000000000000600052601160045260246000fd5b600061268882611bcc565b915061269383611bcc565b92508282019050808211156126ab576126aa61264e565b5b92915050565b7f4f6e6c79204f7267616e697365722063616e206164642043616e64696461746560008201527f7321000000000000000000000000000000000000000000000000000000000000602082015250565b600061270d602283611c38565b9150612718826126b1565b604082019050919050565b6000602082019050818103600083015261273c81612700565b9050919050565b600060c082019050818103600083015261275d8189611c73565b905081810360208301526127718188611c73565b905081810360408301526127858187611c73565b90506127946060830186611bd6565b6127a16080830185611cac565b81810360a08301526127b38184611c73565b905097965050505050505056fea26469706673582212208c9a803e51e7c5c7ac01fe49b5f6d6ed00c67d89dfdfbb1c3cf05e6fc6912e1364736f6c634300081c0033",
  "linkReferences": {},
  "deployedLinkReferences": {}
}