{
  "_format": "hh-sol-artifact-1",
  "contractName": "Create",
  "sourceName": "contracts/VotingContract.sol",
  "abi": [
    {
      "inputs": [],
      "stateMutability": "nonpayable",
      "type": "constructor"
    },
    {
      "anonymous": false,
      "inputs": [
        {
          "indexed": true,
          "internalType": "uint256",
          "name": "candidateId",
          "type": "uint256"
        },
        {
          "indexed": false,
          "internalType": "string",
          "name": "age",
          "type": "string"
        },
        {
          "indexed": false,
          "internalType": "string",
          "name": "name",
          "type": "string"
        },
        {
          "indexed": false,
          "internalType": "string",
          "name": "image",
          "type": "string"
        },
        {
          "indexed": false,
          "internalType": "string",
          "name": "party",
          "type": "string"
        },
        {
          "indexed": false,
          "internalType": "uint256",
          "name": "voteCount",
          "type": "uint256"
        },
        {
          "indexed": false,
          "internalType": "address",
          "name": "_address",
          "type": "address"
        },
        {
          "indexed": false,
          "internalType": "string",
          "name": "ipfs",
          "type": "string"
        }
      ],
      "name": "CandidateCreate",
      "type": "event"
    },
    {
      "anonymous": false,
      "inputs": [
        {
          "indexed": true,
          "internalType": "address",
          "name": "voter",
          "type": "address"
        },
        {
          "indexed": true,
          "internalType": "address",
          "name": "candidate",
          "type": "address"
        },
        {
          "indexed": true,
          "internalType": "bytes32",
          "name": "userIdHash",
          "type": "bytes32"
        }
      ],
      "name": "VoteCast",
      "type": "event"
    },
    {
      "inputs": [
        {
          "internalType": "uint256",
          "name": "",
          "type": "uint256"
        }
      ],
      "name": "candidateAddress",
      "outputs": [
        {
          "internalType": "address",
          "name": "",
          "type": "address"
        }
      ],
      "stateMutability": "view",
      "type": "function"
    },
    {
      "inputs": [
        {
          "internalType": "address",
          "name": "",
          "type": "address"
        }
      ],
      "name": "candidates",
      "outputs": [
        {
          "internalType": "uint256",
          "name": "candidateId",
          "type": "uint256"
        },
        {
          "internalType": "string",
          "name": "age",
          "type": "string"
        },
        {
          "internalType": "string",
          "name": "name",
          "type": "string"
        },
        {
          "internalType": "string",
          "name": "image",
          "type": "string"
        },
        {
          "internalType": "string",
          "name": "party",
          "type": "string"
        },
        {
          "internalType": "uint256",
          "name": "voteCount",
          "type": "uint256"
        },
        {
          "internalType": "address",
          "name": "_address",
          "type": "address"
        },
        {
          "internalType": "string",
          "name": "ipfs",
          "type": "string"
        }
      ],
      "stateMutability": "view",
      "type": "function"
    },
    {
      "inputs": [],
      "name": "deployer",
      "outputs": [
        {
          "internalType": "address",
          "name": "",
          "type": "address"
        }
      ],
      "stateMutability": "view",
      "type": "function"
    },
    {
      "inputs": [],
      "name": "end_period",
      "outputs": [
        {
          "internalType": "uint256",
          "name": "",
          "type": "uint256"
        }
      ],
      "stateMutability": "view",
      "type": "function"
    },
    {
      "inputs": [],
      "name": "getAllCandidates",
      "outputs": [
        {
          "components": [
            {
              "internalType": "uint256",
              "name": "candidateId",
              "type": "uint256"
            },
            {
              "internalType": "string",
              "name": "age",
              "type": "string"
            },
            {
              "internalType": "string",
              "name": "name",
              "type": "string"
            },
            {
              "internalType": "string",
              "name": "image",
              "type": "string"
            },
            {
              "internalType": "string",
              "name": "party",
              "type": "string"
            },
            {
              "internalType": "uint256",
              "name": "voteCount",
              "type": "uint256"
            },
            {
              "internalType": "address",
              "name": "_address",
              "type": "address"
            },
            {
              "internalType": "string",
              "name": "ipfs",
              "type": "string"
            }
          ],
          "internalType": "struct Create.Candidate[]",
          "name": "",
          "type": "tuple[]"
        }
      ],
      "stateMutability": "view",
      "type": "function"
    },
    {
      "inputs": [],
      "name": "getCandidate",
      "outputs": [
        {
          "internalType": "address[]",
          "name": "",
          "type": "address[]"
        }
      ],
      "stateMutability": "view",
      "type": "function"
    },
    {
      "inputs": [
        {
          "internalType": "address",
          "name": "_address",
          "type": "address"
        }
      ],
      "name": "getCandidateData",
      "outputs": [
        {
          "internalType": "string",
          "name": "",
          "type": "string"
        },
        {
          "internalType": "string",
          "name": "",
          "type": "string"
        },
        {
          "internalType": "uint256",
          "name": "",
          "type": "uint256"
        },
        {
          "internalType": "string",
          "name": "",
          "type": "string"
        },
        {
          "internalType": "string",
          "name": "",
          "type": "string"
        },
        {
          "internalType": "uint256",
          "name": "",
          "type": "uint256"
        },
        {
          "internalType": "string",
          "name": "",
          "type": "string"
        },
        {
          "internalType": "address",
          "name": "",
          "type": "address"
        }
      ],
      "stateMutability": "view",
      "type": "function"
    },
    {
      "inputs": [],
      "name": "getCandidateLength",
      "outputs": [
        {
          "internalType": "uint256",
          "name": "",
          "type": "uint256"
        }
      ],
      "stateMutability": "view",
      "type": "function"
    },
    {
      "inputs": [],
      "name": "getVotedIdList",
      "outputs": [
        {
          "internalType": "bytes32[]",
          "name": "",
          "type": "bytes32[]"
        }
      ],
      "stateMutability": "view",
      "type": "function"
    },
    {
      "inputs": [],
      "name": "getVotedVoterList",
      "outputs": [
        {
          "internalType": "address[]",
          "name": "",
          "type": "address[]"
        }
      ],
      "stateMutability": "view",
      "type": "function"
    },
    {
      "inputs": [
        {
          "internalType": "bytes32",
          "name": "_userIdHash",
          "type": "bytes32"
        }
      ],
      "name": "hasIdVoted",
      "outputs": [
        {
          "internalType": "bool",
          "name": "",
          "type": "bool"
        }
      ],
      "stateMutability": "view",
      "type": "function"
    },
    {
      "inputs": [
        {
          "internalType": "address",
          "name": "",
          "type": "address"
        }
      ],
      "name": "hasVoted",
      "outputs": [
        {
          "internalType": "bool",
          "name": "",
          "type": "bool"
        }
      ],
      "stateMutability": "view",
      "type": "function"
    },
    {
      "inputs": [
        {
          "internalType": "bytes32",
          "name": "",
          "type": "bytes32"
        }
      ],
      "name": "idHasVoted",
      "outputs": [
        {
          "internalType": "bool",
          "name": "",
          "type": "bool"
        }
      ],
      "stateMutability": "view",
      "type": "function"
    },
    {
      "inputs": [],
      "name": "organizer",
      "outputs": [
        {
          "internalType": "address",
          "name": "",
          "type": "address"
        }
      ],
      "stateMutability": "view",
      "type": "function"
    },
    {
      "inputs": [
        {
          "internalType": "address",
          "name": "_address",
          "type": "address"
        },
        {
          "internalType": "string",
          "name": "_age",
          "type": "string"
        },
        {
          "internalType": "string",
          "name": "_name",
          "type": "string"
        },
        {
          "internalType": "string",
          "name": "_image",
          "type": "string"
        },
        {
          "internalType": "string",
          "name": "_party",
          "type": "string"
        },
        {
          "internalType": "string",
          "name": "_ipfs",
          "type": "string"
        }
      ],
      "name": "setCandidate",
      "outputs": [],
      "stateMutability": "nonpayable",
      "type": "function"
    },
    {
      "inputs": [
        {
          "internalType": "address",
          "name": "_organizer",
          "type": "address"
        }
      ],
      "name": "setOrganizer",
      "outputs": [],
      "stateMutability": "nonpayable",
      "type": "function"
    },
    {
      "inputs": [
        {
          "internalType": "uint256",
          "name": "_start",
          "type": "uint256"
        },
        {
          "internalType": "uint256",
          "name": "_end",
          "type": "uint256"
        }
      ],
      "name": "setVotingPeriod",
      "outputs": [],
      "stateMutability": "nonpayable",
      "type": "function"
    },
    {
      "inputs": [],
      "name": "start_period",
      "outputs": [
        {
          "internalType": "uint256",
          "name": "",
          "type": "uint256"
        }
      ],
      "stateMutability": "view",
      "type": "function"
    },
    {
      "inputs": [
        {
          "internalType": "address",
          "name": "_candidateIdAddress",
          "type": "address"
        }
      ],
      "name": "vote",
      "outputs": [],
      "stateMutability": "nonpayable",
      "type": "function"
    },
    {
      "inputs": [
        {
          "internalType": "address",
          "name": "_candidateIdAddress",
          "type": "address"
        },
        {
          "internalType": "bytes32",
          "name": "_userIdHash",
          "type": "bytes32"
        }
      ],
      "name": "voteWithId",
      "outputs": [],
      "stateMutability": "nonpayable",
      "type": "function"
    },
    {
      "inputs": [
        {
          "internalType": "uint256",
          "name": "",
          "type": "uint256"
        }
      ],
      "name": "votedIdHashes",
      "outputs": [
        {
          "internalType": "bytes32",
          "name": "",
          "type": "bytes32"
        }
      ],
      "stateMutability": "view",
      "type": "function"
    },
    {
      "inputs": [
        {
          "internalType": "uint256",
          "name": "",
          "type": "uint256"
        }
      ],
      "name": "votedVoters",
      "outputs": [
        {
          "internalType": "address",
          "name": "",
          "type": "address"
        }
      ],
      "stateMutability": "view",
      "type": "function"
    },
    {
      "inputs": [],
      "name": "votingOrganizer",
      "outputs": [
        {
          "internalType": "address",
          "name": "",
          "type": "address"
        }
      ],
      "stateMutability": "view",
      "type": "function"
    }
  ],
  "bytecode": "0x60808060405234602757600380546001600160a01b031916331790556119fc908161002d8239f35b600080fdfe608080604052600436101561001357600080fd5b60003560e01c90816309eef43e146115b95750806315aa0cc01461013f5780632a466ac71461147e5780632e6997fe1461122f57806338ab91ec146111f75780633a88251a146111b55780635399ed8314611197578063596e965b146110dd5780635cbf532514610f1d5780635cc48aa714610ef45780636120326514610ecb5780636dd7d8ea14610dd857806370218b8514610d585780637831ffb314610cdc5780637a3edc0b146104c2578063823825f0146104a457806389d61d77146103a85780638ab66a90146102b75780638e94568514610227578063a15a36c714610199578063d5f3948814610170578063e90d30e01461013f5763f7522a831461011c57600080fd5b3461013a57600036600319011261013a576020600654604051908152f35b600080fd5b3461013a57602036600319011261013a57600435600052600a602052602060ff604060002054166040519015158152f35b3461013a57600036600319011261013a576003546040516001600160a01b039091168152602090f35b3461013a57604036600319011261013a57600435602435906101c660018060a01b0360055416331461196b565b818110156101d657600155600255005b60405162461bcd60e51b815260206004820152602360248201527f53746172742074696d65206d757374206265206265666f726520656e642074696044820152626d652160e81b6064820152608490fd5b3461013a57600036600319011261013a5760405180602060085491828152019060086000527ff3f7a9fe364faab93b216da50a3214154f22a0a2b415b23a84c8169e8b636ee39060005b81811061029857610294856102888187038261170e565b604051918291826116af565b0390f35b82546001600160a01b0316845260209093019260019283019201610271565b3461013a57602036600319011261013a576001600160a01b036102d86115f4565b166000526007602052602060406000206102948154916102fa600182016117bf565b610306600283016117bf565b91610390610316600383016117bf565b610382610325600485016117bf565b9161037460058601549761036661034b600760018060a01b0360068b01541699016117bf565b986101006040519e8f9e8f90815201526101008d019061160a565b908b820360408d015261160a565b9089820360608b015261160a565b90878203608089015261160a565b9260a086015260c085015283820360e085015261160a565b3461013a57602036600319011261013a576103c16115f4565b6003546001600160a01b03163303610453576001600160a01b0316801561040e57806001600160601b0360a01b60045416176004556001600160601b0360a01b6005541617600555600080f35b60405162461bcd60e51b815260206004820152601960248201527f496e76616c6964206f7267616e697a65722061646472657373000000000000006044820152606490fd5b60405162461bcd60e51b815260206004820152602360248201527f4f6e6c79206465706c6f7965722063616e2073657420746865206f7267616e696044820152623d32b960e91b6064820152608490fd5b3461013a57600036600319011261013a576020600254604051908152f35b3461013a5760c036600319011261013a576104db6115f4565b6024356001600160401b03811161013a576104fa90369060040161172f565b6044356001600160401b03811161013a5761051990369060040161172f565b6064356001600160401b03811161013a5761053890369060040161172f565b916084356001600160401b03811161013a5761055890369060040161172f565b9260a4356001600160401b03811161013a5761057890369060040161172f565b9461058e60018060a01b0360055416331461196b565b6001600160a01b0316600081815260076020526040902054610c975760016000540195866000556040516105c1816116f2565b87815260208101908582526040810187815260608201868152608083018a815260a08401916000835260c085019388855260e08601968888528960005260076020526040600020965187556001870190518051906001600160401b0382116108b557819061062f8454611785565b601f8111610c44575b50602090601f8311600114610bdf57600092610bd4575b50508160011b916000199060031b1c19161790555b51805160028701916001600160401b0382116108b55781906106868454611785565b601f8111610b81575b50602090601f8311600114610b1c57600092610b11575b50508160011b916000199060031b1c19161790555b51805160038601916001600160401b0382116108b55781906106dd8454611785565b601f8111610abe575b50602090601f8311600114610a5957600092610a4e575b50508160011b916000199060031b1c19161790555b51805160048501916001600160401b0382116108b5576107328354611785565b601f8111610a06575b50602090601f83116001146109995760079695949392916000918361098e575b50508160011b916000199060031b1c19161790555b516005830155600682019060018060a01b039051166001600160601b0360a01b8254161790550190518051906001600160401b0382116108b55781906107b68454611785565b601f811161093b575b50602090601f83116001146108d6576000926108cb575b50508160011b916000199060031b1c19161790555b600654600160401b8110156108b5577f11c9ddb49fc14a39f10a121f76350fcaaa8cc1a58b16a6bf9e7708739ef08b26966108886108b09561087a61086c9961083f86600161089698016006556006611697565b81549060031b908a821b9160018060a01b03901b19161790556040519a8b9a60e08c5260e08c019061160a565b908a820360208c015261160a565b9088820360408a015261160a565b90868203606088015261160a565b916000608086015260a085015283820360c085015261160a565b0390a2005b634e487b7160e01b600052604160045260246000fd5b015190508a806107d6565b60008581528281209350601f198516905b818110610923575090846001959493921061090a575b505050811b0190556107eb565b015160001960f88460031b161c191690558a80806108fd565b929360206001819287860151815501950193016108e7565b909150836000526020600020601f840160051c81019160208510610984575b90601f859493920160051c01905b81811061097557506107bf565b60008155849350600101610968565b909150819061095a565b015190508f8061075b565b90601f1983169184600052816000209260005b8181106109ee575091600193918560079a9998979694106109d5575b505050811b019055610770565b015160001960f88460031b161c191690558f80806109c8565b929360206001819287860151815501950193016109ac565b836000526020600020601f840160051c81019160208510610a44575b601f0160051c01905b818110610a38575061073b565b60008155600101610a2b565b9091508190610a22565b015190508f806106fd565b60008581528281209350601f198516905b818110610aa65750908460019594939210610a8d575b505050811b019055610712565b015160001960f88460031b161c191690558f8080610a80565b92936020600181928786015181550195019301610a6a565b909150836000526020600020601f840160051c81019160208510610b07575b90601f859493920160051c01905b818110610af857506106e6565b60008155849350600101610aeb565b9091508190610add565b0151905038806106a6565b60008581528281209350601f198516905b818110610b695750908460019594939210610b50575b505050811b0190556106bb565b015160001960f88460031b161c19169055388080610b43565b92936020600181928786015181550195019301610b2d565b909150836000526020600020601f840160051c81019160208510610bca575b90601f859493920160051c01905b818110610bbb575061068f565b60008155849350600101610bae565b9091508190610ba0565b01519050388061064f565b60008581528281209350601f198516905b818110610c2c5750908460019594939210610c13575b505050811b019055610664565b015160001960f88460031b161c19169055388080610c06565b92936020600181928786015181550195019301610bf0565b909150836000526020600020601f840160051c81019160208510610c8d575b90601f859493920160051c01905b818110610c7e5750610638565b60008155849350600101610c71565b9091508190610c63565b60405162461bcd60e51b815260206004820152601960248201527f43616e64696461746520616c72656164792065786973747321000000000000006044820152606490fd5b3461013a57602036600319011261013a5760043560085481101561013a57600090600854811015610d445760089091527ff3f7a9fe364faab93b216da50a3214154f22a0a2b415b23a84c8169e8b636ee301546040516001600160a01b039091168152602090f35b634e487b7160e01b82526032600452602482fd5b3461013a57600036600319011261013a5760405180602060065491828152019060066000527ff652222313e28459528d920b65115c16c04f3efc82aaedc97be59f3f377c0d3f9060005b818110610db957610294856102888187038261170e565b82546001600160a01b0316845260209093019260019283019201610da2565b3461013a57602036600319011261013a57610df16115f4565b610dff60015442101561188e565b610e0d6002544211156118da565b33600052600960205260ff60406000205416610e86573360005260096020526040600020600160ff19825416179055610e4533611926565b6001600160a01b0316600090815260076020526040902060050180546001810191908210610e705755005b634e487b7160e01b600052601160045260246000fd5b60405162461bcd60e51b815260206004820152601760248201527f596f75206861766520616c726561647920766f746564210000000000000000006044820152606490fd5b3461013a57600036600319011261013a576004546040516001600160a01b039091168152602090f35b3461013a57600036600319011261013a576005546040516001600160a01b039091168152602090f35b3461013a57604036600319011261013a57610f366115f4565b60243590610f4860015442101561188e565b610f566002544211156118da565b33600052600960205260ff604060002054166110985781600052600a60205260ff60406000205416611044573360005260096020526040600020600160ff1982541617905581600052600a6020526040600020600160ff19825416179055610fbd33611926565b600b54600160401b8110156108b557806001610fdc9201600b5561167c565b815460001960039290921b91821b19169084901b1790556001600160a01b0316600081815260076020526040902060050180546001810191908210610e705755337f9c7065c178130ca52cfec368fd90ed7ef60dd618d3269160c12149b8abb4916e600080a4005b60405162461bcd60e51b815260206004820152602660248201527f546869732049442068617320616c7265616479206265656e207573656420746f60448201526520766f74652160d01b6064820152608490fd5b60405162461bcd60e51b815260206004820152601e60248201527f546869732077616c6c65742068617320616c726561647920766f7465642100006044820152606490fd5b3461013a57600036600319011261013a57604051806020600b5492838152018092600b6000527f0175b7a638427703f0dbe7bb9bbf987a2551717b34e79f33b5b1008d1fa01db99060005b818110611181575050508161113e91038261170e565b6040519182916020830190602084525180915260408301919060005b818110611168575050500390f35b825184528594506020938401939092019160010161115a565b8254845260209093019260019283019201611128565b3461013a57600036600319011261013a576020600154604051908152f35b3461013a57602036600319011261013a5760043560065481101561013a576111de60209161164b565b905460405160039290921b1c6001600160a01b03168152f35b3461013a57602036600319011261013a57600435600b5481101561013a5761122060209161167c565b90549060031b1c604051908152f35b3461013a57600036600319011261013a5760065461124c81611863565b9061125a604051928361170e565b808252601f1961126982611863565b0160005b81811061143057505060005b81811061136e57826040518091602082016020835281518091526040830190602060408260051b8601019301916000905b8282106112b957505050500390f35b9193600191939550602061135e8192603f198a82030186528851908151815260e061133261132061130e6112fc888701516101008a88015261010087019061160a565b6040870151868203604088015261160a565b6060860151858203606087015261160a565b6080850151848203608086015261160a565b9260a081015160a0840152878060a01b0360c08201511660c084015201519060e081840391015261160a565b96019201920185949391926112aa565b8061137a60019261164b565b838060a01b0391549060031b1c166000526007602052604060002061140f6007604051926113a7846116f2565b805484526113b68682016117bf565b60208501526113c7600282016117bf565b60408501526113d8600382016117bf565b60608501526113e9600482016117bf565b6080850152600581015460a0850152858060a01b0360068201541660c0850152016117bf565b60e082015261141e828661187a565b52611429818561187a565b5001611279565b60209060405161143f816116f2565b600081526060838201526060604082015260608082015260606080820152600060a0820152600060c0820152606060e08201528282870101520161126d565b3461013a57602036600319011261013a576001600160a01b0361149f6115f4565b16600052600760205260406000206101006040516114bc816116f2565b825481526115af6114cf600185016117bf565b93602083019485526114e3600282016117bf565b946040840195865261159c6114fa600384016117bf565b60608601908152610382611510600486016117bf565b916080880192835260058601549260a08901938452611589611548600760018060a01b0360068b0154169960c08d019a8b52016117bf565b968760e08c0152519b5199519251915194519760018060a01b039051169961157b6040519d8d8f9e8f908152019061160a565b8c810360208e01529061160a565b9160408b015289820360608b015261160a565b9160a086015284820360c086015261160a565b9060e08301520390f35b3461013a57602036600319011261013a576020906001600160a01b036115dd6115f4565b166000526009825260ff6040600020541615158152f35b600435906001600160a01b038216820361013a57565b919082519283825260005b848110611636575050826000602080949584010152601f8019910116010190565b80602080928401015182828601015201611615565b60065481101561166657600660005260206000200190600090565b634e487b7160e01b600052603260045260246000fd5b600b5481101561166657600b60005260206000200190600090565b80548210156116665760005260206000200190600090565b602060408183019282815284518094520192019060005b8181106116d35750505090565b82516001600160a01b03168452602093840193909201916001016116c6565b61010081019081106001600160401b038211176108b557604052565b90601f801991011681019081106001600160401b038211176108b557604052565b81601f8201121561013a578035906001600160401b0382116108b55760405192611763601f8401601f19166020018561170e565b8284526020838301011161013a57816000926020809301838601378301015290565b90600182811c921680156117b5575b602083101461179f57565b634e487b7160e01b600052602260045260246000fd5b91607f1691611794565b90604051918260008254926117d384611785565b808452936001811690811561184157506001146117fa575b506117f89250038361170e565b565b90506000929192526020600020906000915b8183106118255750509060206117f892820101386117eb565b602091935080600191548385890101520191019091849261180c565b9050602092506117f894915060ff191682840152151560051b820101386117eb565b6001600160401b0381116108b55760051b60200190565b80518210156116665760209160051b010190565b1561189557565b60405162461bcd60e51b815260206004820152601b60248201527f566f74696e6720686173206e6f742073746172746564207965742100000000006044820152606490fd5b156118e157565b60405162461bcd60e51b815260206004820152601860248201527f566f74696e6720706572696f642068617320656e6465642100000000000000006044820152606490fd5b600854600160401b8110156108b55780600161194792016008556008611697565b81546001600160a01b0393841660039290921b91821b9390911b1916919091179055565b1561197257565b60405162461bcd60e51b815260206004820152602660248201527f4f6e6c79206f7267616e697a65722063616e20706572666f726d20746869732060448201526530b1ba34b7b760d11b6064820152608490fdfea264697066735822122059a667216ec11be236932559be668c40d3af35bcfdbd02f063718e2221d62c7364736f6c634300081c0033",
  "linkReferences": {},
  "deployedLinkReferences": {}
}