{
  "_format": "hh-sol-artifact-1",
  "contractName": "Create",
  "sourceName": "contracts/VotingContract.sol",
  "abi": [
    {
      "inputs": [],
      "stateMutability": "nonpayable",
      "type": "constructor"
    },
    {
      "anonymous": false,
      "inputs": [
        {
          "indexed": true,
          "internalType": "uint256",
          "name": "candidateId",
          "type": "uint256"
        },
        {
          "indexed": false,
          "internalType": "string",
          "name": "age",
          "type": "string"
        },
        {
          "indexed": false,
          "internalType": "string",
          "name": "name",
          "type": "string"
        },
        {
          "indexed": false,
          "internalType": "string",
          "name": "image",
          "type": "string"
        },
        {
          "indexed": false,
          "internalType": "string",
          "name": "party",
          "type": "string"
        },
        {
          "indexed": false,
          "internalType": "uint256",
          "name": "voteCount",
          "type": "uint256"
        },
        {
          "indexed": false,
          "internalType": "address",
          "name": "_address",
          "type": "address"
        },
        {
          "indexed": false,
          "internalType": "string",
          "name": "ipfs",
          "type": "string"
        },
        {
          "indexed": false,
          "internalType": "uint256",
          "name": "sessionId",
          "type": "uint256"
        }
      ],
      "name": "CandidateCreate",
      "type": "event"
    },
    {
      "anonymous": false,
      "inputs": [
        {
          "indexed": true,
          "internalType": "address",
          "name": "voter",
          "type": "address"
        },
        {
          "indexed": false,
          "internalType": "address[]",
          "name": "candidates",
          "type": "address[]"
        },
        {
          "indexed": false,
          "internalType": "uint256",
          "name": "sessionId",
          "type": "uint256"
        },
        {
          "indexed": false,
          "internalType": "uint256",
          "name": "timestamp",
          "type": "uint256"
        }
      ],
      "name": "MultipleVoteCast",
      "type": "event"
    },
    {
      "anonymous": false,
      "inputs": [
        {
          "indexed": true,
          "internalType": "uint256",
          "name": "sessionId",
          "type": "uint256"
        },
        {
          "indexed": false,
          "internalType": "uint256",
          "name": "startPeriod",
          "type": "uint256"
        },
        {
          "indexed": false,
          "internalType": "uint256",
          "name": "endPeriod",
          "type": "uint256"
        }
      ],
      "name": "SessionCreated",
      "type": "event"
    },
    {
      "anonymous": false,
      "inputs": [
        {
          "indexed": true,
          "internalType": "uint256",
          "name": "sessionId",
          "type": "uint256"
        },
        {
          "indexed": false,
          "internalType": "uint256",
          "name": "endPeriod",
          "type": "uint256"
        },
        {
          "indexed": false,
          "internalType": "uint256",
          "name": "totalVotes",
          "type": "uint256"
        }
      ],
      "name": "SessionEnded",
      "type": "event"
    },
    {
      "anonymous": false,
      "inputs": [
        {
          "indexed": true,
          "internalType": "address",
          "name": "voter",
          "type": "address"
        },
        {
          "indexed": true,
          "internalType": "address",
          "name": "candidate",
          "type": "address"
        },
        {
          "indexed": true,
          "internalType": "bytes32",
          "name": "userIdHash",
          "type": "bytes32"
        },
        {
          "indexed": false,
          "internalType": "uint256",
          "name": "sessionId",
          "type": "uint256"
        },
        {
          "indexed": false,
          "internalType": "uint256",
          "name": "timestamp",
          "type": "uint256"
        }
      ],
      "name": "VoteCast",
      "type": "event"
    },
    {
      "anonymous": false,
      "inputs": [
        {
          "indexed": true,
          "internalType": "address",
          "name": "voter",
          "type": "address"
        },
        {
          "indexed": false,
          "internalType": "uint256",
          "name": "sessionId",
          "type": "uint256"
        },
        {
          "indexed": false,
          "internalType": "uint256",
          "name": "timestamp",
          "type": "uint256"
        }
      ],
      "name": "WhiteVoteCast",
      "type": "event"
    },
    {
      "inputs": [
        {
          "internalType": "uint256",
          "name": "",
          "type": "uint256"
        }
      ],
      "name": "activeCandiates",
      "outputs": [
        {
          "internalType": "address",
          "name": "",
          "type": "address"
        }
      ],
      "stateMutability": "view",
      "type": "function"
    },
    {
      "inputs": [
        {
          "internalType": "uint256",
          "name": "",
          "type": "uint256"
        }
      ],
      "name": "candidateAddress",
      "outputs": [
        {
          "internalType": "address",
          "name": "",
          "type": "address"
        }
      ],
      "stateMutability": "view",
      "type": "function"
    },
    {
      "inputs": [
        {
          "internalType": "address",
          "name": "",
          "type": "address"
        }
      ],
      "name": "candidates",
      "outputs": [
        {
          "internalType": "uint256",
          "name": "candidateId",
          "type": "uint256"
        },
        {
          "internalType": "string",
          "name": "age",
          "type": "string"
        },
        {
          "internalType": "string",
          "name": "name",
          "type": "string"
        },
        {
          "internalType": "string",
          "name": "image",
          "type": "string"
        },
        {
          "internalType": "string",
          "name": "party",
          "type": "string"
        },
        {
          "internalType": "uint256",
          "name": "voteCount",
          "type": "uint256"
        },
        {
          "internalType": "address",
          "name": "_address",
          "type": "address"
        },
        {
          "internalType": "string",
          "name": "ipfs",
          "type": "string"
        },
        {
          "internalType": "uint256",
          "name": "sessionId",
          "type": "uint256"
        },
        {
          "internalType": "bool",
          "name": "isArchived",
          "type": "bool"
        }
      ],
      "stateMutability": "view",
      "type": "function"
    },
    {
      "inputs": [],
      "name": "checkSessionStatus",
      "outputs": [
        {
          "internalType": "bool",
          "name": "",
          "type": "bool"
        }
      ],
      "stateMutability": "nonpayable",
      "type": "function"
    },
    {
      "inputs": [],
      "name": "currentSessionId",
      "outputs": [
        {
          "internalType": "uint256",
          "name": "",
          "type": "uint256"
        }
      ],
      "stateMutability": "view",
      "type": "function"
    },
    {
      "inputs": [],
      "name": "deployer",
      "outputs": [
        {
          "internalType": "address",
          "name": "",
          "type": "address"
        }
      ],
      "stateMutability": "view",
      "type": "function"
    },
    {
      "inputs": [],
      "name": "getActiveCandidates",
      "outputs": [
        {
          "internalType": "address[]",
          "name": "",
          "type": "address[]"
        }
      ],
      "stateMutability": "view",
      "type": "function"
    },
    {
      "inputs": [],
      "name": "getAllCandidates",
      "outputs": [
        {
          "components": [
            {
              "internalType": "uint256",
              "name": "candidateId",
              "type": "uint256"
            },
            {
              "internalType": "string",
              "name": "age",
              "type": "string"
            },
            {
              "internalType": "string",
              "name": "name",
              "type": "string"
            },
            {
              "internalType": "string",
              "name": "image",
              "type": "string"
            },
            {
              "internalType": "string",
              "name": "party",
              "type": "string"
            },
            {
              "internalType": "uint256",
              "name": "voteCount",
              "type": "uint256"
            },
            {
              "internalType": "address",
              "name": "_address",
              "type": "address"
            },
            {
              "internalType": "string",
              "name": "ipfs",
              "type": "string"
            },
            {
              "internalType": "uint256",
              "name": "sessionId",
              "type": "uint256"
            },
            {
              "internalType": "bool",
              "name": "isArchived",
              "type": "bool"
            }
          ],
          "internalType": "struct Create.Candidate[]",
          "name": "",
          "type": "tuple[]"
        }
      ],
      "stateMutability": "view",
      "type": "function"
    },
    {
      "inputs": [],
      "name": "getAllSessionsVotesByYear",
      "outputs": [
        {
          "internalType": "uint256[]",
          "name": "yeers",
          "type": "uint256[]"
        },
        {
          "internalType": "uint256[]",
          "name": "totalVotes",
          "type": "uint256[]"
        }
      ],
      "stateMutability": "view",
      "type": "function"
    },
    {
      "inputs": [
        {
          "internalType": "address",
          "name": "_address",
          "type": "address"
        }
      ],
      "name": "getCandidateData",
      "outputs": [
        {
          "internalType": "string",
          "name": "",
          "type": "string"
        },
        {
          "internalType": "string",
          "name": "",
          "type": "string"
        },
        {
          "internalType": "uint256",
          "name": "",
          "type": "uint256"
        },
        {
          "internalType": "string",
          "name": "",
          "type": "string"
        },
        {
          "internalType": "string",
          "name": "",
          "type": "string"
        },
        {
          "internalType": "uint256",
          "name": "",
          "type": "uint256"
        },
        {
          "internalType": "string",
          "name": "",
          "type": "string"
        },
        {
          "internalType": "address",
          "name": "",
          "type": "address"
        },
        {
          "internalType": "uint256",
          "name": "",
          "type": "uint256"
        },
        {
          "internalType": "bool",
          "name": "",
          "type": "bool"
        }
      ],
      "stateMutability": "view",
      "type": "function"
    },
    {
      "inputs": [],
      "name": "getCandidateLength",
      "outputs": [
        {
          "internalType": "uint256",
          "name": "",
          "type": "uint256"
        }
      ],
      "stateMutability": "view",
      "type": "function"
    },
    {
      "inputs": [],
      "name": "getCurrentSessionCandidates",
      "outputs": [
        {
          "internalType": "address[]",
          "name": "",
          "type": "address[]"
        }
      ],
      "stateMutability": "view",
      "type": "function"
    },
    {
      "inputs": [],
      "name": "getCurrentSessionWinner",
      "outputs": [
        {
          "internalType": "string",
          "name": "name",
          "type": "string"
        },
        {
          "internalType": "address",
          "name": "winnerAddress",
          "type": "address"
        },
        {
          "internalType": "uint256",
          "name": "voteCount",
          "type": "uint256"
        },
        {
          "internalType": "string",
          "name": "party",
          "type": "string"
        },
        {
          "internalType": "string",
          "name": "image",
          "type": "string"
        }
      ],
      "stateMutability": "view",
      "type": "function"
    },
    {
      "inputs": [
        {
          "internalType": "uint256",
          "name": "sessionId",
          "type": "uint256"
        }
      ],
      "name": "getSession",
      "outputs": [
        {
          "internalType": "uint256",
          "name": "sessionId_",
          "type": "uint256"
        },
        {
          "internalType": "uint256",
          "name": "startPeriod",
          "type": "uint256"
        },
        {
          "internalType": "uint256",
          "name": "endPeriod",
          "type": "uint256"
        },
        {
          "internalType": "uint256",
          "name": "totalVotes",
          "type": "uint256"
        },
        {
          "internalType": "address[]",
          "name": "sessionCandidates",
          "type": "address[]"
        },
        {
          "internalType": "bool",
          "name": "isActive",
          "type": "bool"
        }
      ],
      "stateMutability": "view",
      "type": "function"
    },
    {
      "inputs": [
        {
          "internalType": "uint256",
          "name": "sessionId",
          "type": "uint256"
        }
      ],
      "name": "getSessionCandidates",
      "outputs": [
        {
          "internalType": "address[]",
          "name": "",
          "type": "address[]"
        }
      ],
      "stateMutability": "view",
      "type": "function"
    },
    {
      "inputs": [
        {
          "internalType": "uint256",
          "name": "_sessionId",
          "type": "uint256"
        }
      ],
      "name": "getSessionData",
      "outputs": [
        {
          "internalType": "uint256",
          "name": "year",
          "type": "uint256"
        },
        {
          "internalType": "string[]",
          "name": "candidateNames",
          "type": "string[]"
        },
        {
          "internalType": "uint256[]",
          "name": "voteCounts",
          "type": "uint256[]"
        },
        {
          "internalType": "string",
          "name": "winnerName",
          "type": "string"
        },
        {
          "internalType": "address",
          "name": "winnerAddress",
          "type": "address"
        },
        {
          "internalType": "uint256",
          "name": "winnerVoteCount",
          "type": "uint256"
        }
      ],
      "stateMutability": "view",
      "type": "function"
    },
    {
      "inputs": [],
      "name": "getVotedIdList",
      "outputs": [
        {
          "internalType": "bytes32[]",
          "name": "",
          "type": "bytes32[]"
        }
      ],
      "stateMutability": "view",
      "type": "function"
    },
    {
      "inputs": [],
      "name": "getVotedVoterList",
      "outputs": [
        {
          "internalType": "address[]",
          "name": "",
          "type": "address[]"
        }
      ],
      "stateMutability": "view",
      "type": "function"
    },
    {
      "inputs": [
        {
          "internalType": "uint256",
          "name": "sessionId",
          "type": "uint256"
        }
      ],
      "name": "getVotesPerMinute",
      "outputs": [
        {
          "internalType": "uint256[]",
          "name": "timePoints",
          "type": "uint256[]"
        },
        {
          "internalType": "uint256[]",
          "name": "voteCounts",
          "type": "uint256[]"
        }
      ],
      "stateMutability": "view",
      "type": "function"
    },
    {
      "inputs": [],
      "name": "getVotingPeriod",
      "outputs": [
        {
          "internalType": "uint256",
          "name": "start",
          "type": "uint256"
        },
        {
          "internalType": "uint256",
          "name": "end",
          "type": "uint256"
        },
        {
          "internalType": "bool",
          "name": "active",
          "type": "bool"
        }
      ],
      "stateMutability": "view",
      "type": "function"
    },
    {
      "inputs": [
        {
          "internalType": "bytes32",
          "name": "_userIdHash",
          "type": "bytes32"
        }
      ],
      "name": "hasIdVoted",
      "outputs": [
        {
          "internalType": "bool",
          "name": "",
          "type": "bool"
        }
      ],
      "stateMutability": "view",
      "type": "function"
    },
    {
      "inputs": [
        {
          "internalType": "address",
          "name": "",
          "type": "address"
        }
      ],
      "name": "hasVoted",
      "outputs": [
        {
          "internalType": "bool",
          "name": "",
          "type": "bool"
        }
      ],
      "stateMutability": "view",
      "type": "function"
    },
    {
      "inputs": [
        {
          "internalType": "bytes32",
          "name": "",
          "type": "bytes32"
        }
      ],
      "name": "idHasVoted",
      "outputs": [
        {
          "internalType": "bool",
          "name": "",
          "type": "bool"
        }
      ],
      "stateMutability": "view",
      "type": "function"
    },
    {
      "inputs": [],
      "name": "isVotingActive",
      "outputs": [
        {
          "internalType": "bool",
          "name": "",
          "type": "bool"
        }
      ],
      "stateMutability": "view",
      "type": "function"
    },
    {
      "inputs": [
        {
          "internalType": "address[]",
          "name": "_candidateAddresses",
          "type": "address[]"
        }
      ],
      "name": "multipleVote",
      "outputs": [],
      "stateMutability": "nonpayable",
      "type": "function"
    },
    {
      "inputs": [],
      "name": "organizer",
      "outputs": [
        {
          "internalType": "address",
          "name": "",
          "type": "address"
        }
      ],
      "stateMutability": "view",
      "type": "function"
    },
    {
      "inputs": [
        {
          "internalType": "address",
          "name": "_address",
          "type": "address"
        },
        {
          "internalType": "string",
          "name": "_age",
          "type": "string"
        },
        {
          "internalType": "string",
          "name": "_name",
          "type": "string"
        },
        {
          "internalType": "string",
          "name": "_image",
          "type": "string"
        },
        {
          "internalType": "string",
          "name": "_party",
          "type": "string"
        },
        {
          "internalType": "string",
          "name": "_ipfs",
          "type": "string"
        }
      ],
      "name": "setCandidate",
      "outputs": [],
      "stateMutability": "nonpayable",
      "type": "function"
    },
    {
      "inputs": [
        {
          "internalType": "address",
          "name": "_organizer",
          "type": "address"
        }
      ],
      "name": "setOrganizer",
      "outputs": [],
      "stateMutability": "nonpayable",
      "type": "function"
    },
    {
      "inputs": [
        {
          "internalType": "uint256",
          "name": "_start",
          "type": "uint256"
        },
        {
          "internalType": "uint256",
          "name": "_end",
          "type": "uint256"
        }
      ],
      "name": "setVotingPeriod",
      "outputs": [],
      "stateMutability": "nonpayable",
      "type": "function"
    },
    {
      "inputs": [
        {
          "internalType": "address",
          "name": "_candidateIdAddress",
          "type": "address"
        }
      ],
      "name": "vote",
      "outputs": [],
      "stateMutability": "nonpayable",
      "type": "function"
    },
    {
      "inputs": [
        {
          "internalType": "address",
          "name": "_candidateIdAddress",
          "type": "address"
        },
        {
          "internalType": "bytes32",
          "name": "_userIdHash",
          "type": "bytes32"
        }
      ],
      "name": "voteWithId",
      "outputs": [],
      "stateMutability": "nonpayable",
      "type": "function"
    },
    {
      "inputs": [
        {
          "internalType": "uint256",
          "name": "",
          "type": "uint256"
        }
      ],
      "name": "votedIdHashes",
      "outputs": [
        {
          "internalType": "bytes32",
          "name": "",
          "type": "bytes32"
        }
      ],
      "stateMutability": "view",
      "type": "function"
    },
    {
      "inputs": [
        {
          "internalType": "uint256",
          "name": "",
          "type": "uint256"
        }
      ],
      "name": "votedVoters",
      "outputs": [
        {
          "internalType": "address",
          "name": "",
          "type": "address"
        }
      ],
      "stateMutability": "view",
      "type": "function"
    },
    {
      "inputs": [],
      "name": "votingOrganizer",
      "outputs": [
        {
          "internalType": "address",
          "name": "",
          "type": "address"
        }
      ],
      "stateMutability": "view",
      "type": "function"
    },
    {
      "inputs": [],
      "name": "whiteVote",
      "outputs": [],
      "stateMutability": "nonpayable",
      "type": "function"
    }
  ],
  "bytecode": "0x60808060405234602757600280546001600160a01b0319163317905561319b908161002d8239f35b600080fdfe608080604052600436101561001357600080fd5b60003560e01c90816309eef43e146127545750806313181174146126b457806315aa0cc0146101c357806317360f5e146124045780632a466ac7146122895780632cdfa5a2146122265780632e6997fe14611f95578063346582c614611c6057806338ab91ec14611c285780633a88251a14611bff5780633ecc6a4314611bcf578063402ff0db14611b325780634058646e14611b1657806347cf6f7614611af3578063596e965b14611a395780635cbf5325146117c15780635cc48aa714611798578063612032651461176f5780636597a1301461175157806365c4fb88146117045780636766746f146116c25780636dd7d8ea1461150d57806371d193f61461129257806377c86b871461118d5780637831ffb3146111115780637a3edc0b146108c0578063829efb621461089b57806389d61d77146107955780638ab66a901461067e5780638e557aae1461053a5780638e945685146104bf578063a15a36c71461021d578063d5f39488146101f4578063e90d30e0146101c35763f7522a83146101a057600080fd5b346101be5760003660031901126101be576020600854604051908152f35b600080fd5b346101be5760203660031901126101be57600435600052600d602052602060ff604060002054166040519015158152f35b346101be5760003660031901126101be576002546040516001600160a01b039091168152602090f35b346101be5760403660031901126101be576004356024359061024a60018060a01b03600454163314612f3f565b8181101561046e5760075460ff811661041f578142116103db57600a541561037c578290600180805401918282558260065560ff1916176007558060005260056020526040600020928184558060018501558260028501556000600385015560068401600160ff19825416179055600460009401935b600a54811015610349576102d3816128cb565b90548654929160031b1c6001600160a01b0316600160401b831015610333576103038360018095018955886128e6565b81549060031b9083821b91868060a01b03901b1916179055600052600960205283600860406000200155016102c0565b634e487b7160e01b600052604160045260246000fd5b5060407f58c715ec232788c447398243d73496af6e000aa553967975ce4f75824a252765918482519182526020820152a2005b60405162461bcd60e51b815260206004820152603160248201527f4e6f206163746976652063616e6469646174657320746f20696e636c7564652060448201527034b7103b37ba34b7339039b2b9b9b4b7b760791b6064820152608490fd5b606460405162461bcd60e51b815260206004820152602060248201527f53746172742074696d65206d75737420626520696e20746865206675747572656044820152fd5b60405162461bcd60e51b815260206004820152602160248201527f4120766f74696e6720706572696f6420697320616c72656164792061637469766044820152606560f81b6064820152608490fd5b60405162461bcd60e51b815260206004820152602360248201527f53746172742074696d65206d757374206265206265666f726520656e642074696044820152626d652160e81b6064820152608490fd5b346101be5760003660031901126101be57604051600b548082526020820190600b60005260206000209060005b81811061051b57610517856105038187038261291a565b604051918291602083526020830190612842565b0390f35b82546001600160a01b03168452602090930192600192830192016104ec565b346101be5760203660031901126101be5760043580151580610672575b61056090612b7c565b806000526005602052603c60016040600020015404603c810290808204603c149015171561065c57816000526005602052600260406000200154603b810180911161065c57603c9004603c810290808204603c149015171561065c5781810390811161065c57603c90046001810180911161065c576105de81612a86565b916105e882612a86565b9360005b83811061060257604051806105178888836127d9565b603c810290808204603c148115171561065c5761062160019285612ee6565b8061062c8389612ad4565b528360005260056020526005604060002001906000526020526040600020546106558289612ad4565b52016105ec565b634e487b7160e01b600052601160045260246000fd5b50600154811115610557565b346101be5760203660031901126101be576001600160a01b0361069f61278f565b16600052600960205260406000208054600182016106bc906129e2565b916106c9600282016129e2565b6106d5600383016129e2565b6106e1600484016129e2565b6005840154600685015490916001600160a01b0390911690610705600787016129e2565b936008870154966009015460ff1695604051998a998a5260208a0161014090526101408a0161073391612801565b89810360408b015261074491612801565b88810360608a015261075591612801565b878103608089015261076691612801565b9160a087015260c086015284810360e086015261078291612801565b9161010084015215156101208301520390f35b346101be5760203660031901126101be576107ae61278f565b6002546001600160a01b0316330361084a576001600160a01b0316801561080557806bffffffffffffffffffffffff60a01b60035416176003556bffffffffffffffffffffffff60a01b6004541617600455600080f35b60405162461bcd60e51b815260206004820152601960248201527f496e76616c6964206f7267616e697a65722061646472657373000000000000006044820152606490fd5b60405162461bcd60e51b815260206004820152602360248201527f4f6e6c79206465706c6f7965722063616e2073657420746865206f7267616e696044820152623d32b960e91b6064820152608490fd5b346101be5760003660031901126101be5760206108b6612fb1565b6040519015158152f35b346101be5760c03660031901126101be576108d961278f565b6024356001600160401b0381116101be576108f8903690600401612952565b6044356001600160401b0381116101be57610917903690600401612952565b6064356001600160401b0381116101be57610936903690600401612952565b916084356001600160401b0381116101be57610956903690600401612952565b9260a4356001600160401b0381116101be57610976903690600401612952565b9461098c60018060a01b03600454163314612f3f565b6001600160a01b03166000818152600960205260409020546110cc5760ff6007541661106d5760016000540195866000556040516109c9816128fe565b87815260208101908582526040810187815260608201868152608083018a815260a084016000815260c085019188835260e08601938885526101008701956000875261012088019860008a528b60005260096020526040600020985189556001890190518051906001600160401b038211610333578190610a4a84546129a8565b601f811161103b575b50602090601f8311600114610fd657600092610fcb575b50508160011b916000199060031b1c19161790555b51805160028901916001600160401b038211610333578190610aa184546129a8565b601f8111610f99575b50602090601f8311600114610f3457600092610f29575b50508160011b916000199060031b1c19161790555b51805160038801916001600160401b038211610333578190610af884546129a8565b601f8111610ef7575b50602090601f8311600114610e9257600092610e87575b50508160011b916000199060031b1c19161790555b51805160048701916001600160401b038211610333578190610b4f84546129a8565b601f8111610e55575b50602090601f8311600114610df057600092610de5575b50508160011b916000199060031b1c19161790555b516005850155516006840180546001600160a01b0319166001600160a01b039290921691909117905551805160078401916001600160401b03821161033357610bcd83546129a8565b601f8111610da8575b50602090601f8311600114610d3c576009959493929160009183610d31575b50508160011b916000199060031b1c19161790555b516008820155019051151560ff80198354169116179055600854600160401b81101561033357806001610c42920160085560086128e6565b81546001600160a01b0360039290921b91821b19169084901b179055600a54600160401b811015610333577f6b0dd9bccd604cc179a4fd3991e275b7c4f6b29d4a21bcc4addbc6bd4de997bb96610cfd610d2595610cef610ce199610cb2866001610d0b9801600a55600a6128e6565b81549060031b908a821b9160018060a01b03901b19161790556040519a8b9a6101008c526101008c0190612801565b908a820360208c0152612801565b9088820360408a0152612801565b908682036060880152612801565b916000608086015260a085015283820360c0850152612801565b600060e08301520390a2005b015190508e80610bf5565b90601f1983169184600052816000209260005b818110610d9057509160019391856009999897969410610d77575b505050811b019055610c0a565b015160001960f88460031b161c191690558e8080610d6a565b92936020600181928786015181550195019301610d4f565b610dd590846000526020600020601f850160051c81019160208610610ddb575b601f0160051c0190612f9a565b8d610bd6565b9091508190610dc8565b015190503880610b6f565b60008581528281209350601f198516905b818110610e3d5750908460019594939210610e24575b505050811b019055610b84565b015160001960f88460031b161c19169055388080610e17565b92936020600181928786015181550195019301610e01565b610e8190856000526020600020601f850160051c81019160208610610ddb57601f0160051c0190612f9a565b38610b58565b015190503880610b18565b60008581528281209350601f198516905b818110610edf5750908460019594939210610ec6575b505050811b019055610b2d565b015160001960f88460031b161c19169055388080610eb9565b92936020600181928786015181550195019301610ea3565b610f2390856000526020600020601f850160051c81019160208610610ddb57601f0160051c0190612f9a565b38610b01565b015190503880610ac1565b60008581528281209350601f198516905b818110610f815750908460019594939210610f68575b505050811b019055610ad6565b015160001960f88460031b161c19169055388080610f5b565b92936020600181928786015181550195019301610f45565b610fc590856000526020600020601f850160051c81019160208610610ddb57601f0160051c0190612f9a565b38610aaa565b015190503880610a6a565b60008581528281209350601f198516905b818110611023575090846001959493921061100a575b505050811b019055610a7f565b015160001960f88460031b161c19169055388080610ffd565b92936020600181928786015181550195019301610fe7565b61106790856000526020600020601f850160051c81019160208610610ddb57601f0160051c0190612f9a565b38610a53565b60405162461bcd60e51b815260206004820152603160248201527f43616e6e6f74206164642063616e6469646174657320647572696e67206163746044820152701a5d99481d9bdd1a5b99c81c195c9a5bd9607a1b6064820152608490fd5b60405162461bcd60e51b815260206004820152601960248201527f43616e64696461746520616c72656164792065786973747321000000000000006044820152606490fd5b346101be5760203660031901126101be57600435600b548110156101be57600090600b5481101561117957600b9091527f0175b7a638427703f0dbe7bb9bbf987a2551717b34e79f33b5b1008d1fa01db901546040516001600160a01b039091168152602090f35b634e487b7160e01b82526032600452602482fd5b346101be5760003660031901126101be576111a6612fb1565b506111b560ff60075416612d2e565b6006546111c3811515612ae8565b8060005260056020526111e0600160406000200154421015612d7a565b60005260056020526111fc600260406000200154421115612dc6565b33600052600c60205261121760ff6040600020541615612ef3565b33600052600c6020526040600020600160ff1982541617905561123933612ea1565b600654600052600560205260036040600020018054906001820180921161065c57556006546040519081524260208201527fe5da07420f5f35ecc73d807687f8daeaf2004d494be4ac1c2583ef321873492a60403392a2005b346101be5760203660031901126101be576004356001600160401b0381116101be57366023820112156101be5780600401356112cd8161293b565b916112db604051938461291a565b8183526024602084019260051b820101903682116101be57602401915b8183106114ed5783611308612fb1565b5061131760ff60075416612d2e565b600654611325811515612ae8565b806000526005602052611342600160406000200154421015612d7a565b600052600560205261135e600260406000200154421115612dc6565b33600052600c60205261137960ff6040600020541615612ef3565b60018151111561149a5733600052600c6020526040600020600160ff198254161790556113a533612ea1565b60005b8151811015611429576001600160a01b036113c38284612ad4565b51168060005260096020526113e360086040600020015460065414612e12565b80600052600960205261140160ff6009604060002001541615612e5d565b600052600960205260056040600020019081546001810180911161065c5760019255016113a8565b508051600654600052600560205261144a6003604060002001918254612ee6565b90557f2a429da0ebb269deed90be02e30b879b9bb96b2f88f2bde28c9a78bc55ded2a36006549161148660405191606083526060830190612842565b9260208201524260408201528033930390a2005b60405162461bcd60e51b815260206004820152602560248201527f4d75737420766f746520666f72206d6f7265207468616e206f6e652063616e64604482015264696461746560d81b6064820152608490fd5b82356001600160a01b03811681036101be578152602092830192016112f8565b346101be5760203660031901126101be5761152661278f565b61152e612fb1565b5061153d60ff60075416612d2e565b6115c76006549161154f831515612ae8565b82600052600560205261156c600160406000200154421015612d7a565b826000526005602052611589600260406000200154421115612dc6565b33600052600c6020526115a460ff6040600020541615612ef3565b6001600160a01b0316600081815260096020526040902060080154909214612e12565b8060005260096020526115e560ff6009604060002001541615612e5d565b33600052600c6020526040600020600160ff1982541617905561160733612ea1565b80600052600960205260056040600020018054906001820180921161065c5755600654600052600560205260036040600020018054906001820180921161065c5755603c420490603c820291808304603c149015171561065c576000916006548352600560205260056040842001908352602052604082206116898154612ab8565b90556006546040519081524260208201527f647822560e018adbf196ebed4703baf3ae318630886dddc759253f77be11800760403392a4005b346101be5760203660031901126101be57600435600a548110156101be576116eb6020916128cb565b905460405160039290921b1c6001600160a01b03168152f35b346101be5760203660031901126101be5760043580151580611745575b61172a90612b7c565b60005260056020526105176105036004604060002001612b28565b50600154811115611721565b346101be5760003660031901126101be576020600654604051908152f35b346101be5760003660031901126101be576003546040516001600160a01b039091168152602090f35b346101be5760003660031901126101be576004546040516001600160a01b039091168152602090f35b346101be5760403660031901126101be576117da61278f565b602435906117e6612fb1565b506117f560ff60075416612d2e565b60065490611804821515612ae8565b816000526005602052611821600160406000200154421015612d7a565b81600052600560205261183e600260406000200154421115612dc6565b33600052600c60205260ff604060002054166119f45782600052600d60205260ff604060002054166119a0576001600160a01b031660008181526009602052604090206008015490916118919114612e12565b8060005260096020526118af60ff6009604060002001541615612e5d565b33600052600c6020526040600020600160ff1982541617905581600052600d6020526040600020600160ff198254161790556118ea33612ea1565b600e54600160401b811015610333578060016119099201600e556128b0565b81549060031b9084821b91600019901b191617905580600052600960205260056040600020018054906001820180921161065c5755600654600052600560205260036040600020018054906001820180921161065c5755603c4204603c810290808204603c149015171561065c57600654600052600560205260056040600020019060005260205260406000206116898154612ab8565b60405162461bcd60e51b815260206004820152602660248201527f546869732049442068617320616c7265616479206265656e207573656420746f60448201526520766f74652160d01b6064820152608490fd5b60405162461bcd60e51b815260206004820152601e60248201527f546869732077616c6c65742068617320616c726561647920766f7465642100006044820152606490fd5b346101be5760003660031901126101be57604051806020600e5492838152018092600e6000527fbb7b4a454dc3493923482f07822329ed19e8244eff582cc204f8554c3620c3fd9060005b818110611add5750505081611a9a91038261291a565b6040519182916020830190602084525180915260408301919060005b818110611ac4575050500390f35b8251845285945060209384019390920191600101611ab6565b8254845260209093019260019283019201611a84565b346101be5760003660031901126101be57602060ff600754166040519015158152f35b346101be5760003660031901126101be57610517610503612bf6565b346101be5760203660031901126101be5760043580151580611bc3575b611b5890612b7c565b600052600560205260406000208054600182015491611bb760028201546003830154611b8e600460ff6006870154169501612b28565b91604051968796875260208701526040860152606085015260c0608085015260c0840190612842565b90151560a08301520390f35b50600154811115611b4f565b346101be5760003660031901126101be576060611bea612bbd565b90604051928352602083015215156040820152f35b346101be5760203660031901126101be576004356008548110156101be576116eb60209161287f565b346101be5760203660031901126101be57600435600e548110156101be57611c516020916128b0565b90549060031b1c604051908152f35b346101be5760203660031901126101be5760043580151580611f89575b611c8690612b7c565b806000526005602052611ca0600160406000200154613125565b906000526005602052611cb96004604060002001612b28565b90815191611cc68361293b565b611cd3604051918261291a565b838152601f19611ce28561293b565b0160005b818110611f78575050611cf884612a86565b9360005b818110611f1d57506001600160a01b039050611d1783612ac7565b5116928360005260096020526005604060002001549160015b8451811015611db6576001600160a01b03611d4b8287612ad4565b511660005260096020528360056040600020015411611d6d575b600101611d30565b945091506001600160a01b03611d838585612ad4565b51166000908152600960205260409020600501549160016001600160a01b03611dac8787612ad4565b5116959050611d65565b6001600160a01b03861660009081526009602052604090819020905184908985611ddf836128fe565b84548352611def600186016129e2565b6020840152611e00600286016129e2565b60408401908152611e13600387016129e2565b6060850152611e24600487016129e2565b608085015260058601549360a0810194855261012060ff600960018060a01b0360068b0154169960c085019a8b52611e5e600782016129e2565b60e086015260088101546101008601520154161515910152519460018060a01b039051169251916040519460c0860190865260c06020870152825180915260e0860190602060e08260051b8901019401916000905b828210611ef2575050505094611ed582869787611ee3950360408901526127a5565b908582036060870152612801565b91608084015260a08301520390f35b90919294602080611f0f60019360df198d82030186528951612801565b970192019201909291611eb3565b6001906001600160a01b03611f328287612ad4565b5116600052600960205260056040600020611f4f600282016129e2565b611f598488612ad4565b52611f648387612ad4565b500154611f718289612ad4565b5201611cfc565b806060602080938601015201611ce6565b50600154811115611c7d565b346101be5760003660031901126101be57600854611fb28161293b565b90611fc0604051928361291a565b808252601f19611fcf8261293b565b0160005b8181106121c857505060005b8181106120eb57826040518091602082016020835281518091526040830190602060408260051b8601019301916000905b82821061201f57505050500390f35b919360019193955060208091603f1989820301855287519081518152610120806120c761209a612088612076612064898901516101408b8a0152610140890190612801565b604089015188820360408a0152612801565b60608801518782036060890152612801565b60808701518682036080880152612801565b60a086015160a0860152888060a01b0360c08701511660c086015260e086015185820360e0870152612801565b93610100810151610100850152015115159101529601920192018594939192612010565b806120f760019261287f565b838060a01b0391549060031b1c166000526009602052604060002060ff600960405192612123846128fe565b805484526121328682016129e2565b6020850152612143600282016129e2565b6040850152612154600382016129e2565b6060850152612165600482016129e2565b6080850152600581015460a0850152858060a01b0360068201541660c0850152612191600782016129e2565b60e0850152600881015461010085015201541615156101208201526121b68286612ad4565b526121c18185612ad4565b5001611fdf565b6020906040516121d7816128fe565b600081526060838201526060604082015260608082015260606080820152600060a0820152600060c0820152606060e08201526000610100820152600061012082015282828701015201611fd3565b346101be5760003660031901126101be57604051600a548082526020820190600a60005260206000209060005b81811061226a57610517856105038187038261291a565b82546001600160a01b0316845260209093019260019283019201612253565b346101be5760203660031901126101be576001600160a01b036122aa61278f565b16600052600960205260406000206123ac604051916122c8836128fe565b805483526101206122db600183016129e2565b91602085019283526123ee85826123db6122f7600283016129e2565b96604084019788526123cd61230e600385016129e2565b60608601908152612321600486016129e2565b60808701908152600586015460a0880190815260068701546001600160a01b031660c089019081529790946123ba9160ff6009600861236260078d016129e2565b9b8c60e086015201549d8e61010085015201541615159c8d910152519b519d519251915194519760018060a01b039051169b6040519e8f9e8f926101408452610140840190612801565b916020818403910152612801565b9160408d01528b820360608d0152612801565b9089820360808b0152612801565b9160a088015286820360c0880152612801565b9260e08501526101008401526101208301520390f35b346101be5760003660031901126101be57600654612423811515612ae8565b6000526005602052604060002060028101544211156126655760046124489101612b28565b805115612614576001600160a01b0361246082612ac7565b5116908160005260096020526005604060002001549060015b81518110156124ff576001600160a01b036124948284612ad4565b5116600052600960205282600560406000200154116124b6575b600101612479565b925090506001600160a01b036124cc8383612ad4565b51166000908152600960205260409020600501549060016001600160a01b036124f58584612ad4565b51169390506124ae565b8360018060a01b031660005260096020526125ee6040600020610517604051612527816128fe565b82548152612537600184016129e2565b602082015261260661254b600285016129e2565b916040810192835261255f600386016129e2565b60608201908152612572600487016129e2565b936080830194855260058701549260a0810193845261012060ff600960018060a01b0360068c0154169a60c085019b8c526125af600782016129e2565b60e086015260088101546101008601520154161515910152519560018060a01b039051169151935190519360405197889760a0895260a0890190612801565b92602088015260408701528582036060870152612801565b908382036080850152612801565b60405162461bcd60e51b8152602060048201526024808201527f4e6f2063616e6469646174657320696e207468652063757272656e742073657360448201526339b4b7b760e11b6064820152608490fd5b60405162461bcd60e51b815260206004820152602160248201527f43757272656e742073657373696f6e20686173206e6f7420656e6465642079656044820152601d60fa1b6064820152608490fd5b346101be5760003660031901126101be576001546126d181612a86565b6126da82612a86565b9160015b818111156126f7575050610517604051928392836127d9565b806000526005602052612711600160406000200154613125565b90600019810181811161065c5761274f9261272c8287612ad4565b528160005260056020526127496003604060002001549187612ad4565b52612ab8565b6126de565b346101be5760203660031901126101be576020906001600160a01b0361277861278f565b16600052600c825260ff6040600020541615158152f35b600435906001600160a01b03821682036101be57565b906020808351928381520192019060005b8181106127c35750505090565b82518452602093840193909201916001016127b6565b90916127f06127fe936040845260408401906127a5565b9160208184039101526127a5565b90565b919082519283825260005b84811061282d575050826000602080949584010152601f8019910116010190565b8060208092840101518282860101520161280c565b906020808351928381520192019060005b8181106128605750505090565b82516001600160a01b0316845260209384019390920191600101612853565b60085481101561289a57600860005260206000200190600090565b634e487b7160e01b600052603260045260246000fd5b600e5481101561289a57600e60005260206000200190600090565b600a5481101561289a57600a60005260206000200190600090565b805482101561289a5760005260206000200190600090565b61014081019081106001600160401b0382111761033357604052565b90601f801991011681019081106001600160401b0382111761033357604052565b6001600160401b0381116103335760051b60200190565b81601f820112156101be578035906001600160401b0382116103335760405192612986601f8401601f19166020018561291a565b828452602083830101116101be57816000926020809301838601378301015290565b90600182811c921680156129d8575b60208310146129c257565b634e487b7160e01b600052602260045260246000fd5b91607f16916129b7565b90604051918260008254926129f6846129a8565b8084529360018116908115612a645750600114612a1d575b50612a1b9250038361291a565b565b90506000929192526020600020906000915b818310612a48575050906020612a1b9282010138612a0e565b6020919350806001915483858901015201910190918492612a2f565b905060209250612a1b94915060ff191682840152151560051b82010138612a0e565b90612a908261293b565b612a9d604051918261291a565b8281528092612aae601f199161293b565b0190602036910137565b600019811461065c5760010190565b80511561289a5760200190565b805182101561289a5760209160051b010190565b15612aef57565b60405162461bcd60e51b815260206004820152601160248201527027379030b1ba34bb329039b2b9b9b4b7b760791b6044820152606490fd5b906040519182815491828252602082019060005260206000209260005b818110612b5a575050612a1b9250038361291a565b84546001600160a01b0316835260019485019487945060209093019201612b45565b15612b8357565b60405162461bcd60e51b8152602060048201526012602482015271125b9d985b1a59081cd95cdcda5bdb88125160721b6044820152606490fd5b6006548015612bea5760005260056020526040600020600260018201549101549160ff6007541691929190565b50600090600090600090565b60065480158015612d21575b612d1b576000526005602052612c1e6004604060002001612b28565b6000805b8251811015612c75576001600160a01b03612c3d8285612ad4565b5116600052600960205260ff6009604060002001541615612c61575b600101612c22565b90612c6d600191612ab8565b919050612c59565b5090612c808261293b565b91612c8e604051938461291a565b808352612c9d601f199161293b565b013660208401376000805b8251811015612d15576001600160a01b03612cc38285612ad4565b5116600052600960205260ff6009604060002001541615612ce7575b600101612ca8565b90600190612d0d906001600160a01b03612d018587612ad4565b51166127498288612ad4565b919050612cdf565b50505090565b50606090565b5060ff6007541615612c02565b15612d3557565b60405162461bcd60e51b815260206004820152601760248201527f4e6f2061637469766520766f74696e6720706572696f640000000000000000006044820152606490fd5b15612d8157565b60405162461bcd60e51b815260206004820152601b60248201527f566f74696e6720686173206e6f742073746172746564207965742100000000006044820152606490fd5b15612dcd57565b60405162461bcd60e51b815260206004820152601860248201527f566f74696e6720706572696f642068617320656e6465642100000000000000006044820152606490fd5b15612e1957565b606460405162461bcd60e51b815260206004820152602060248201527f43616e646964617465206e6f7420696e2063757272656e742073657373696f6e6044820152fd5b15612e6457565b60405162461bcd60e51b815260206004820152601560248201527410d85b991a59185d19481a5cc8185c98da1a5d9959605a1b6044820152606490fd5b600b54600160401b81101561033357806001612ec29201600b55600b6128e6565b81546001600160a01b0393841660039290921b91821b9390911b1916919091179055565b9190820180921161065c57565b15612efa57565b60405162461bcd60e51b815260206004820152601760248201527f596f75206861766520616c726561647920766f746564210000000000000000006044820152606490fd5b15612f4657565b60405162461bcd60e51b815260206004820152602660248201527f4f6e6c79206f7267616e697a65722063616e20706572666f726d20746869732060448201526530b1ba34b7b760d11b6064820152608490fd5b818110612fa5575050565b60008155600101612f9a565b60ff6007541615801561311b575b613116576006548060005260056020526002604060002001544211612fe45750600090565b806000526005602052612ffd6004604060002001612b28565b60005b8151811015613040576001906001600160a01b0361301e8285612ad4565b5116600052600960205260096040600020018260ff1982541617905501613000565b5050600a546000600a55806130b9575b5060008181526005602090815260409182902060068101805460ff1916905560028101546003909101548351918252918101919091527fc446f8f1e6fbbc6e4fdaec8efa48bafc3ae412d4d3c4613581ef83cc361a613c9190a260ff1960075416600755600190565b7fc65a7bb8d6351c1cf70c95a316cc6a92839c986682d98bc35f958f4883f9d2a8017fc65a7bb8d6351c1cf70c95a316cc6a92839c986682d98bc35f958f4883f9d2a85b81811061310a5750613050565b600081556001016130fd565b600090565b5060065415612fbf565b6201518090046105b581048060021b908082046004149015171561065c5761016d6105b561315593060490612ee6565b6107b201806107b21161065c579056fea2646970667358221220d35bfb2d77d0e0823e5b0e93ff68ab9a515fda19eb342d1839dbae1fcb2a1b1b64736f6c634300081c0033",
  "linkReferences": {},
  "deployedLinkReferences": {}
}