{
  "_format": "hh-sol-artifact-1",
  "contractName": "Create",
  "sourceName": "contracts/VotingContract.sol",
  "abi": [
    {
      "inputs": [],
      "stateMutability": "nonpayable",
      "type": "constructor"
    },
    {
      "anonymous": false,
      "inputs": [
        {
          "indexed": true,
          "internalType": "uint256",
          "name": "candidateId",
          "type": "uint256"
        },
        {
          "indexed": false,
          "internalType": "string",
          "name": "age",
          "type": "string"
        },
        {
          "indexed": false,
          "internalType": "string",
          "name": "name",
          "type": "string"
        },
        {
          "indexed": false,
          "internalType": "string",
          "name": "image",
          "type": "string"
        },
        {
          "indexed": false,
          "internalType": "string",
          "name": "party",
          "type": "string"
        },
        {
          "indexed": false,
          "internalType": "uint256",
          "name": "voteCount",
          "type": "uint256"
        },
        {
          "indexed": false,
          "internalType": "address",
          "name": "_address",
          "type": "address"
        },
        {
          "indexed": false,
          "internalType": "string",
          "name": "ipfs",
          "type": "string"
        }
      ],
      "name": "CandidateCreate",
      "type": "event"
    },
    {
      "inputs": [
        {
          "internalType": "uint256",
          "name": "",
          "type": "uint256"
        }
      ],
      "name": "candidateAddress",
      "outputs": [
        {
          "internalType": "address",
          "name": "",
          "type": "address"
        }
      ],
      "stateMutability": "view",
      "type": "function"
    },
    {
      "inputs": [
        {
          "internalType": "address",
          "name": "",
          "type": "address"
        }
      ],
      "name": "candidates",
      "outputs": [
        {
          "internalType": "uint256",
          "name": "candidateId",
          "type": "uint256"
        },
        {
          "internalType": "string",
          "name": "age",
          "type": "string"
        },
        {
          "internalType": "string",
          "name": "name",
          "type": "string"
        },
        {
          "internalType": "string",
          "name": "image",
          "type": "string"
        },
        {
          "internalType": "string",
          "name": "party",
          "type": "string"
        },
        {
          "internalType": "uint256",
          "name": "voteCount",
          "type": "uint256"
        },
        {
          "internalType": "address",
          "name": "_address",
          "type": "address"
        },
        {
          "internalType": "string",
          "name": "ipfs",
          "type": "string"
        }
      ],
      "stateMutability": "view",
      "type": "function"
    },
    {
      "inputs": [],
      "name": "deployer",
      "outputs": [
        {
          "internalType": "address",
          "name": "",
          "type": "address"
        }
      ],
      "stateMutability": "view",
      "type": "function"
    },
    {
      "inputs": [],
      "name": "end_period",
      "outputs": [
        {
          "internalType": "uint256",
          "name": "",
          "type": "uint256"
        }
      ],
      "stateMutability": "view",
      "type": "function"
    },
    {
      "inputs": [],
      "name": "getAllCandidates",
      "outputs": [
        {
          "components": [
            {
              "internalType": "uint256",
              "name": "candidateId",
              "type": "uint256"
            },
            {
              "internalType": "string",
              "name": "age",
              "type": "string"
            },
            {
              "internalType": "string",
              "name": "name",
              "type": "string"
            },
            {
              "internalType": "string",
              "name": "image",
              "type": "string"
            },
            {
              "internalType": "string",
              "name": "party",
              "type": "string"
            },
            {
              "internalType": "uint256",
              "name": "voteCount",
              "type": "uint256"
            },
            {
              "internalType": "address",
              "name": "_address",
              "type": "address"
            },
            {
              "internalType": "string",
              "name": "ipfs",
              "type": "string"
            }
          ],
          "internalType": "struct Create.Candidate[]",
          "name": "",
          "type": "tuple[]"
        }
      ],
      "stateMutability": "view",
      "type": "function"
    },
    {
      "inputs": [],
      "name": "getCandidate",
      "outputs": [
        {
          "internalType": "address[]",
          "name": "",
          "type": "address[]"
        }
      ],
      "stateMutability": "view",
      "type": "function"
    },
    {
      "inputs": [
        {
          "internalType": "address",
          "name": "_address",
          "type": "address"
        }
      ],
      "name": "getCandidateData",
      "outputs": [
        {
          "internalType": "string",
          "name": "",
          "type": "string"
        },
        {
          "internalType": "string",
          "name": "",
          "type": "string"
        },
        {
          "internalType": "uint256",
          "name": "",
          "type": "uint256"
        },
        {
          "internalType": "string",
          "name": "",
          "type": "string"
        },
        {
          "internalType": "string",
          "name": "",
          "type": "string"
        },
        {
          "internalType": "uint256",
          "name": "",
          "type": "uint256"
        },
        {
          "internalType": "string",
          "name": "",
          "type": "string"
        },
        {
          "internalType": "address",
          "name": "",
          "type": "address"
        }
      ],
      "stateMutability": "view",
      "type": "function"
    },
    {
      "inputs": [],
      "name": "getCandidateLength",
      "outputs": [
        {
          "internalType": "uint256",
          "name": "",
          "type": "uint256"
        }
      ],
      "stateMutability": "view",
      "type": "function"
    },
    {
      "inputs": [],
      "name": "getVotedVoterList",
      "outputs": [
        {
          "internalType": "address[]",
          "name": "",
          "type": "address[]"
        }
      ],
      "stateMutability": "view",
      "type": "function"
    },
    {
      "inputs": [
        {
          "internalType": "address",
          "name": "",
          "type": "address"
        }
      ],
      "name": "hasVoted",
      "outputs": [
        {
          "internalType": "bool",
          "name": "",
          "type": "bool"
        }
      ],
      "stateMutability": "view",
      "type": "function"
    },
    {
      "inputs": [],
      "name": "organizer",
      "outputs": [
        {
          "internalType": "address",
          "name": "",
          "type": "address"
        }
      ],
      "stateMutability": "view",
      "type": "function"
    },
    {
      "inputs": [
        {
          "internalType": "address",
          "name": "_address",
          "type": "address"
        },
        {
          "internalType": "string",
          "name": "_age",
          "type": "string"
        },
        {
          "internalType": "string",
          "name": "_name",
          "type": "string"
        },
        {
          "internalType": "string",
          "name": "_image",
          "type": "string"
        },
        {
          "internalType": "string",
          "name": "_party",
          "type": "string"
        },
        {
          "internalType": "string",
          "name": "_ipfs",
          "type": "string"
        }
      ],
      "name": "setCandidate",
      "outputs": [],
      "stateMutability": "nonpayable",
      "type": "function"
    },
    {
      "inputs": [
        {
          "internalType": "address",
          "name": "_organizer",
          "type": "address"
        }
      ],
      "name": "setOrganizer",
      "outputs": [],
      "stateMutability": "nonpayable",
      "type": "function"
    },
    {
      "inputs": [
        {
          "internalType": "uint256",
          "name": "_start",
          "type": "uint256"
        },
        {
          "internalType": "uint256",
          "name": "_end",
          "type": "uint256"
        }
      ],
      "name": "setVotingPeriod",
      "outputs": [],
      "stateMutability": "nonpayable",
      "type": "function"
    },
    {
      "inputs": [],
      "name": "start_period",
      "outputs": [
        {
          "internalType": "uint256",
          "name": "",
          "type": "uint256"
        }
      ],
      "stateMutability": "view",
      "type": "function"
    },
    {
      "inputs": [
        {
          "internalType": "address",
          "name": "_candidateIdAddress",
          "type": "address"
        }
      ],
      "name": "vote",
      "outputs": [],
      "stateMutability": "nonpayable",
      "type": "function"
    },
    {
      "inputs": [
        {
          "internalType": "uint256",
          "name": "",
          "type": "uint256"
        }
      ],
      "name": "votedVoters",
      "outputs": [
        {
          "internalType": "address",
          "name": "",
          "type": "address"
        }
      ],
      "stateMutability": "view",
      "type": "function"
    },
    {
      "inputs": [],
      "name": "votingOrganizer",
      "outputs": [
        {
          "internalType": "address",
          "name": "",
          "type": "address"
        }
      ],
      "stateMutability": "view",
      "type": "function"
    }
  ],
  "bytecode": "0x60808060405234602757600380546001600160a01b031916331790556116e6908161002d8239f35b600080fdfe608080604052600436101561001357600080fd5b60003560e01c90816309eef43e146113f6575080632a466ac7146112bb5780632e6997fe1461106c5780633a88251a1461102a5780635399ed831461100c5780635cc48aa714610fe35780636120326514610fba5780636dd7d8ea14610e1857806370218b8514610d985780637831ffb314610d1c5780637a3edc0b146104b3578063823825f01461049557806389d61d77146103995780638ab66a90146102a85780638e94568514610218578063a15a36c714610131578063d5f39488146101085763f7522a83146100e557600080fd5b34610103576000366003190112610103576020600654604051908152f35b600080fd5b34610103576000366003190112610103576003546040516001600160a01b039091168152602090f35b346101035760403660031901126101035760055460243590600435906001600160a01b031633036101bd578181101561016c57600155600255005b60405162461bcd60e51b815260206004820152602360248201527f53746172742074696d65206d757374206265206265666f726520656e642074696044820152626d652160e81b6064820152608490fd5b60405162461bcd60e51b815260206004820152602d60248201527f4f6e6c7920746865206f7267616e697a65722063616e2073657420746865207660448201526c6f74696e6720706572696f642160981b6064820152608490fd5b346101035760003660031901126101035760405180602060085491828152019060086000527ff3f7a9fe364faab93b216da50a3214154f22a0a2b415b23a84c8169e8b636ee39060005b818110610289576102858561027981870382611530565b604051918291826114d1565b0390f35b82546001600160a01b0316845260209093019260019283019201610262565b34610103576020366003190112610103576001600160a01b036102c9611431565b166000526007602052602060406000206102858154916102eb600182016115e1565b6102f7600283016115e1565b91610381610307600383016115e1565b610373610316600485016115e1565b9161036560058601549761035761033c600760018060a01b0360068b01541699016115e1565b986101006040519e8f9e8f90815201526101008d0190611447565b908b820360408d0152611447565b9089820360608b0152611447565b908782036080890152611447565b9260a086015260c085015283820360e0850152611447565b34610103576020366003190112610103576103b2611431565b6003546001600160a01b03163303610444576001600160a01b031680156103ff57806001600160601b0360a01b60045416176004556001600160601b0360a01b6005541617600555600080f35b60405162461bcd60e51b815260206004820152601960248201527f496e76616c6964206f7267616e697a65722061646472657373000000000000006044820152606490fd5b60405162461bcd60e51b815260206004820152602360248201527f4f6e6c79206465706c6f7965722063616e2073657420746865206f7267616e696044820152623d32b960e91b6064820152608490fd5b34610103576000366003190112610103576020600254604051908152f35b346101035760c0366003190112610103576104cc611431565b6024356001600160401b038111610103576104eb903690600401611551565b6044356001600160401b0381116101035761050a903690600401611551565b6064356001600160401b03811161010357610529903690600401611551565b916084356001600160401b03811161010357610549903690600401611551565b9260a4356001600160401b03811161010357610569903690600401611551565b6005549095906001600160a01b03163303610ccc576001600160a01b0316600081815260076020526040902054610c875760016000540195866000556040516105b181611514565b87815260208101908582526040810187815260608201868152608083018a815260a08401916000835260c085019388855260e08601968888528960005260076020526040600020965187556001870190518051906001600160401b0382116108a557819061061f84546115a7565b601f8111610c34575b50602090601f8311600114610bcf57600092610bc4575b50508160011b916000199060031b1c19161790555b51805160028701916001600160401b0382116108a557819061067684546115a7565b601f8111610b71575b50602090601f8311600114610b0c57600092610b01575b50508160011b916000199060031b1c19161790555b51805160038601916001600160401b0382116108a55781906106cd84546115a7565b601f8111610aae575b50602090601f8311600114610a4957600092610a3e575b50508160011b916000199060031b1c19161790555b51805160048501916001600160401b0382116108a55761072283546115a7565b601f81116109f6575b50602090601f83116001146109895760079695949392916000918361097e575b50508160011b916000199060031b1c19161790555b516005830155600682019060018060a01b039051166001600160601b0360a01b8254161790550190518051906001600160401b0382116108a55781906107a684546115a7565b601f811161092b575b50602090601f83116001146108c6576000926108bb575b50508160011b916000199060031b1c19161790555b600654600160401b8110156108a5577f11c9ddb49fc14a39f10a121f76350fcaaa8cc1a58b16a6bf9e7708739ef08b26966108786108a09561086a61085c9961082f866001610886980160065560066114b9565b81549060031b908a821b9160018060a01b03901b19161790556040519a8b9a60e08c5260e08c0190611447565b908a820360208c0152611447565b9088820360408a0152611447565b908682036060880152611447565b916000608086015260a085015283820360c0850152611447565b0390a2005b634e487b7160e01b600052604160045260246000fd5b015190508a806107c6565b60008581528281209350601f198516905b81811061091357509084600195949392106108fa575b505050811b0190556107db565b015160001960f88460031b161c191690558a80806108ed565b929360206001819287860151815501950193016108d7565b909150836000526020600020601f840160051c81019160208510610974575b90601f859493920160051c01905b81811061096557506107af565b60008155849350600101610958565b909150819061094a565b015190508f8061074b565b90601f1983169184600052816000209260005b8181106109de575091600193918560079a9998979694106109c5575b505050811b019055610760565b015160001960f88460031b161c191690558f80806109b8565b9293602060018192878601518155019501930161099c565b836000526020600020601f840160051c81019160208510610a34575b601f0160051c01905b818110610a28575061072b565b60008155600101610a1b565b9091508190610a12565b015190508f806106ed565b60008581528281209350601f198516905b818110610a965750908460019594939210610a7d575b505050811b019055610702565b015160001960f88460031b161c191690558f8080610a70565b92936020600181928786015181550195019301610a5a565b909150836000526020600020601f840160051c81019160208510610af7575b90601f859493920160051c01905b818110610ae857506106d6565b60008155849350600101610adb565b9091508190610acd565b015190503880610696565b60008581528281209350601f198516905b818110610b595750908460019594939210610b40575b505050811b0190556106ab565b015160001960f88460031b161c19169055388080610b33565b92936020600181928786015181550195019301610b1d565b909150836000526020600020601f840160051c81019160208510610bba575b90601f859493920160051c01905b818110610bab575061067f565b60008155849350600101610b9e565b9091508190610b90565b01519050388061063f565b60008581528281209350601f198516905b818110610c1c5750908460019594939210610c03575b505050811b019055610654565b015160001960f88460031b161c19169055388080610bf6565b92936020600181928786015181550195019301610be0565b909150836000526020600020601f840160051c81019160208510610c7d575b90601f859493920160051c01905b818110610c6e5750610628565b60008155849350600101610c61565b9091508190610c53565b60405162461bcd60e51b815260206004820152601960248201527f43616e64696461746520616c72656164792065786973747321000000000000006044820152606490fd5b60405162461bcd60e51b815260206004820152602260248201527f4f6e6c79204f7267616e697365722063616e206164642043616e646964617465604482015261732160f01b6064820152608490fd5b346101035760203660031901126101035760043560085481101561010357600090600854811015610d845760089091527ff3f7a9fe364faab93b216da50a3214154f22a0a2b415b23a84c8169e8b636ee301546040516001600160a01b039091168152602090f35b634e487b7160e01b82526032600452602482fd5b346101035760003660031901126101035760405180602060065491828152019060066000527ff652222313e28459528d920b65115c16c04f3efc82aaedc97be59f3f377c0d3f9060005b818110610df9576102858561027981870382611530565b82546001600160a01b0316845260209093019260019283019201610de2565b3461010357602036600319011261010357610e31611431565b6001544210610f75576002544211610f305733600052600960205260ff60406000205416610eeb573360005260096020526040600020600160ff19825416179055600854600160401b8110156108a557806001610e93920160085560086114b9565b81546001600160a01b0360039290921b82811b199091163390911b1790915516600090815260076020526040902060050180546001810191908210610ed55755005b634e487b7160e01b600052601160045260246000fd5b60405162461bcd60e51b815260206004820152601760248201527f596f75206861766520616c726561647920766f746564210000000000000000006044820152606490fd5b60405162461bcd60e51b815260206004820152601860248201527f566f74696e6720706572696f642068617320656e6465642100000000000000006044820152606490fd5b60405162461bcd60e51b815260206004820152601b60248201527f566f74696e6720686173206e6f742073746172746564207965742100000000006044820152606490fd5b34610103576000366003190112610103576004546040516001600160a01b039091168152602090f35b34610103576000366003190112610103576005546040516001600160a01b039091168152602090f35b34610103576000366003190112610103576020600154604051908152f35b346101035760203660031901126101035760043560065481101561010357611053602091611488565b905460405160039290921b1c6001600160a01b03168152f35b346101035760003660031901126101035760065461108981611685565b906110976040519283611530565b808252601f196110a682611685565b0160005b81811061126d57505060005b8181106111ab57826040518091602082016020835281518091526040830190602060408260051b8601019301916000905b8282106110f657505050500390f35b9193600191939550602061119b8192603f198a82030186528851908151815260e061116f61115d61114b611139888701516101008a880152610100870190611447565b60408701518682036040880152611447565b60608601518582036060870152611447565b60808501518482036080860152611447565b9260a081015160a0840152878060a01b0360c08201511660c084015201519060e0818403910152611447565b96019201920185949391926110e7565b806111b7600192611488565b838060a01b0391549060031b1c166000526007602052604060002061124c6007604051926111e484611514565b805484526111f38682016115e1565b6020850152611204600282016115e1565b6040850152611215600382016115e1565b6060850152611226600482016115e1565b6080850152600581015460a0850152858060a01b0360068201541660c0850152016115e1565b60e082015261125b828661169c565b52611266818561169c565b50016110b6565b60209060405161127c81611514565b600081526060838201526060604082015260608082015260606080820152600060a0820152600060c0820152606060e0820152828287010152016110aa565b34610103576020366003190112610103576001600160a01b036112dc611431565b16600052600760205260406000206101006040516112f981611514565b825481526113ec61130c600185016115e1565b9360208301948552611320600282016115e1565b94604084019586526113d9611337600384016115e1565b6060860190815261037361134d600486016115e1565b916080880192835260058601549260a089019384526113c6611385600760018060a01b0360068b0154169960c08d019a8b52016115e1565b968760e08c0152519b5199519251915194519760018060a01b03905116996113b86040519d8d8f9e8f9081520190611447565b8c810360208e015290611447565b9160408b015289820360608b0152611447565b9160a086015284820360c0860152611447565b9060e08301520390f35b34610103576020366003190112610103576020906001600160a01b0361141a611431565b166000526009825260ff6040600020541615158152f35b600435906001600160a01b038216820361010357565b919082519283825260005b848110611473575050826000602080949584010152601f8019910116010190565b80602080928401015182828601015201611452565b6006548110156114a357600660005260206000200190600090565b634e487b7160e01b600052603260045260246000fd5b80548210156114a35760005260206000200190600090565b602060408183019282815284518094520192019060005b8181106114f55750505090565b82516001600160a01b03168452602093840193909201916001016114e8565b61010081019081106001600160401b038211176108a557604052565b90601f801991011681019081106001600160401b038211176108a557604052565b81601f82011215610103578035906001600160401b0382116108a55760405192611585601f8401601f191660200185611530565b8284526020838301011161010357816000926020809301838601378301015290565b90600182811c921680156115d7575b60208310146115c157565b634e487b7160e01b600052602260045260246000fd5b91607f16916115b6565b90604051918260008254926115f5846115a7565b8084529360018116908115611663575060011461161c575b5061161a92500383611530565b565b90506000929192526020600020906000915b81831061164757505090602061161a928201013861160d565b602091935080600191548385890101520191019091849261162e565b90506020925061161a94915060ff191682840152151560051b8201013861160d565b6001600160401b0381116108a55760051b60200190565b80518210156114a35760209160051b01019056fea26469706673582212201e4d3222b31daca74e6ce60a7d6a3533bced41fbf58dc3c7f81d1a9c122288c664736f6c634300081c0033",
  "linkReferences": {},
  "deployedLinkReferences": {}
}